:020000040800F2
:1000000030060020D9040008C9030008CB0300080B
:1000100000000000000000000000000000000000E0
:10002000000000000000000000000000CF030008F6
:100030000000000000000000D1030008D303000806
:10004000EB040008EB040008EB040008EB040008D4
:10005000EB040008EB040008EB040008EB040008C4
:10006000EB040008EB040008EB040008EB040008B4
:10007000EB040008EB040008EB040008EB040008A4
:10008000EB040008EB04000800000000EB0400088B
:10009000EB040008EB040008EB040008EB04000884
:1000A000EB040008EB040008EB0400082F04000830
:1000B000EB04000800000000EB0400080000000052
:1000C0000348854600F028FB0048004795010008DA
:1000D0003006002008B50090002801DD401EFAE738
:1000E00008BD10B5364800783649097888420BD0EB
:1000F00035490968334A1278885C00F0CAF83148FB
:100100000078401C2F4908702E4800782F49097844
:10011000884203DD2E4800782A49087010BD10B5CA
:100120000020274908702A490870092025490870CD
:10013000264908700A2027490870012026490870BE
:100140002449087800F00AFB1F49086023484069E9
:100150000121C9040843214948612148006801215F
:10016000090408431E49086008468088FF210131C0
:1001700088431B4988800846806803210904084396
:10018000174988600846C068032109048843144958
:10019000C86010BDFFF7C3FF00F03CF800F0BEF8E8
:1001A00010A000F098F80AE0FFF79BFF18490968D3
:1001B000C8080A2100F09AFA0446FFF78BFFF3E71C
:1001C000040000200500002000000020070000209F
:1001D0000600002008000020090000200010024056
:1001E000000800485468697320697320617373695B
:1001F000676E6D656E7420322C20676574207265A1
:1002000061647920746F2074797065210A000000A0
:100210001000002010B564484069012149040843DA
:10022000614948610920C00600680521C9040843E6
:100230000921C90608600846406AFF2111310843B8
:100240000921C90648625848806901218903084389
:1002500055498861FF20A130544988810D200860EC
:1002600000204860886008460068202108434F4904
:1002700008601B20012181404D4A116000BF002110
:1002800000F05BF81B20012181404A4A116000BF49
:1002900010BD00BF4549C969802211400029F9D02D
:1002A00042492031088170474049C96908221140FC
:1002B000002904D03D49096A11433C4A116200BF3C
:1002C0003A49C969202211400029F9D03749203123
:1002D0008988C8B2704700B5034609E018780A2833
:1002E00002D10D20FFF7D5FF18785B1CFFF7D1FF77
:1002F00018780028F2D100BD30B50446202300252F
:1003000007E0FFF7D1FF03461846FFF7C2FF63552A
:100310006D1C0A2B01D00D2BF3D130BD0EB526A1DB
:1003200003C90291019026A00068009001A8FFF780
:10033000D2FF6846FFF7CFFF0EBD10B5002819DACF
:10034000204A03071B0F083B9B089B00D2588307DA
:10035000DC0EFF23A3409A438B071B0E8407E40E99
:10036000A3401A43174B0407240F083CA408A40019
:100370001A5118E00E4A03231B02D21883089B006F
:10038000D2588307DC0EFF23A3409A438B071B0E32
:100390008407E40EA3401A43054B032424021B19CF
:1003A0008408A4001A5110BD00100240003801401A
:1003B00000E100E080E200E01B5B324A0000000048
:1003C0001B5B66001CED00E0704700BFFEE7704756
:1003D0007047374801680068401C354A10600029A2
:1003E00003D10120400233498861314800680F2859
:1003F00004D1012040022F49203108812C48006897
:100400001E2803D1012040022A498861284800683B
:100410002D2804D10120400226492031088124489A
:100420000068C82802D1002021490860704722488E
:10043000C06920210840002839D020480078204990
:10044000097840181F49097888421CD01B48007859
:100450001B49097840181C490978884205D1194878
:1004600000781A49097888420DD0134820308088D6
:1004700017490968114A1278885410480078401CBE
:100480000E49087009E00B488069FF2101310843DB
:1004900008498861084820308088084800780D495C
:1004A0000978884203DD09480078044908707047DC
:1004B0000C00002000080048003801400400002023
:1004C0000900002005000020080000200600002090
:1004D000000000200700002004488047044800472F
:1004E000FEE7FEE7FEE7FEE7FEE7FEE7C3050008DE
:1004F000C10000080CB5002001900090734800680E
:100500000121090408437149086000BF6F48006871
:1005100001214904084000900198401C0190009876
:10052000002804D10521090201988842EED16748CC
:100530000068012149040840002802D001200090F1
:1005400001E0002000900098012839D11120604975
:1005500008605E4840685D494860084640684860F9
:10056000084640683F2109048843584948600846C6
:10057000406811210904084354494860084600684E
:100580000121090608435149086000BF4F4800682F
:100590000121490608400028F8D04C4840688008EE
:1005A00080004A494860084640680221084347499C
:1005B000486000BF454840680C2108400828F9D130
:1005C0000CBD10B541480068012108433F4908604F
:1005D000084640683F4908403C4948600846006872
:1005E0003D490840394908600846006801218904EE
:1005F000884336490860084640683F21090488431B
:10060000324948600846C06A00090001C8620846CD
:10061000006BFF21543188432C4908630846406B26
:1006200040084000486300208860FFF763FF10BD6A
:10063000F8B50025002400260027244840680C2136
:1006400008400546002D04D0042D06D0082D2AD1DF
:1006500007E022482249086029E020482049086034
:1006600025E01A4840680F218904084004461748CD
:1006700040680121090408400646A00C841C002E95
:1006800004D118486043164908600BE00F48C06A5F
:100690000007000F471C3946104800F027F8604358
:1006A0000F49086003E00D480D49086000BF00BF16
:1006B00006484068F021084000090B490D5C0848D5
:1006C0000068E84006490860F8BD000000100240DC
:1006D000002002400CB8FFF8FFFFF6FE00127A007F
:1006E0001000002000093D001400002030B50B462A
:1006F000014600202022012409E00D46D5409D42FC
:1007000005D31D469540491B254695404019154681
:10071000521E002DF1DC30BD064C0125064E05E0D1
:10072000E36807CC2B430C3C98471034B442F7D312
:10073000FFF7CAFCC8070008E807000802E008C87D
:10074000121F08C1002AFAD170477047002001E04B
:1007500001C1121F002AFBD170470000F0B50B3019
:10076000C108C900144F0026144A0FE003688B42E9
:100770000BD38B4205D95C1A4318456830C3083B3C
:1007800000E04368136002C004E0021D1068002806
:10079000ECD13046002803D13868002801D0002071
:1007A000F0BD064A06481060064A121AD208D20066
:1007B00044C001203860D7E7280000202400002032
:1007C0003400002030020020E8070008000000206C
:1007D0002C0000003C070008140800082C00002032
:1007E000040600004C0700080000000000000000A4
:1007F0000000000000000000006CDC0200000000AF
:1008000000000000010203040607080900000000C0
:0408100000000000E4
:04000005080000C12E
:00000001FF
