:020000040800F2
:1000000038040020BD0E00086D0100086F010008D3
:1000100000000000000000000000000000000000E0
:100020000000000000000000000000007301000854
:1000300000000000000000007501000877010008C2
:10004000CF0E0008CF0E0008CF0E0008CF0E00081C
:10005000CF0E000879010008CF0E0008CF0E00086F
:10006000CF0E0008CF0E0008CF0E0008CF0E0008FC
:10007000CF0E0008CF0E0008CF0E0008CF0E0008EC
:10008000CF0E0008CF0E000800000000CF0E0008C1
:10009000CF0E0008CF0E0008CF0E0008CF0E0008CC
:1000A000CF0E0008CF0E0008CF0E0008CF0E0008BC
:1000B000CF0E000800000000CF0E00080000000076
:1000C0000348854601F01AF800480047D5000008AB
:1000D0003804002086B0002000F068F8012000F00D
:1000E00065F80121480400F0F2FD0121084600F006
:1000F000FCFD002168460175C1750120049004A92A
:100100000920C00600F0B8F90021084600F09AFE68
:10011000012002900021684601730C2141730121E6
:10012000817302A800F0ECF80521684601710321F3
:1001300041710121817101A800F054FA11E0012000
:1001400000F0F3FA002000F05CF806490968C808DE
:100150000A2100F0BDFF044600F020F8002002490B
:100160000860ECE72000002000000020704700BF7E
:10017000FEE770477047704710B5012000F01EF988
:10018000002807D004480068401C0349086001208B
:1001900000F026F910BD00000000002008B5009016
:1001A000002801DD401EFAE708BD00001CB504462A
:1001B000A100444A5058012100F089FD60004249E5
:1001C000085A009001216846017100218171C171B6
:1001D00003214171A1003D4A5058694600F04CF995
:1001E0001CBD4100384A515A8200384B9A589161DF
:1001F00070474100344A515A8200344B9A58118555
:1002000070478100314A5158898A42002E4B9A5AD0
:10021000514082002D4B9A589182704730B585B07D
:1002200004460D46A1002A4A5058012100F04FFD16
:100230000121084600F059FD002168460174C1748F
:1002400060002449085A0390A100234A505803A98A
:1002500000F012F9012D27D16200204B995C620059
:100260001F4B985C00F0EEFD60001E49085A01909B
:10027000002069460872002C02D00820487202E073
:100280000C206946487201216846817201A800F07D
:1002900037F860001449095C684601700321417019
:1002A0000121817000F09EF905B030BD10B5044603
:1002B0006200084B995AA200074B985800F03FF98A
:1002C00010BD000044110008401100080400002087
:1002D000501100084C1100080C00002058110008B3
:1002E00056110008541100085A1100083E483F49B1
:1002F0000860002048608860C8603D4848617047D9
:1003000000213A498279002A35D00A4612680368EA
:100310009A430B461A600A46526803689A430B4692
:100320005A60027951180A6803681A430A602F4A12
:10033000926803689A432D4B9A601A46D268036804
:100340009A432A4BDA604279102A0CD11A469268F5
:1003500003681A43254B9A601A46D26803681A4309
:10036000224BDA600DE02149427951180A6803688E
:100370001A430A6005E0027951180A6803689A4333
:100380000A6070470021016001710C214171002158
:1003900081717047154909690143144A1161704719
:1003A00001460020114A52690A40002A01D001206A
:1003B00000E0002070470D49486170470146002069
:1003C00000220A4B1B680B401A46084B5B690B4026
:1003D000002B03D0002A01D0012000E0002070474C
:1003E00002494861704700000000940F000401407A
:1003F000FFFF6B0010B504460920C006844209D1F6
:100400000121480400F08DFC00210120400400F08F
:1004100088FC30E06E48844208D10121000200F0DF
:1004200080FC0021200200F07CFC24E0694884422A
:1004300008D10121000200F074FC0021200200F02C
:1004400070FC18E06448844209D10121080500F0DD
:1004500068FC00210120000500F063FC0BE05F4810
:10046000844208D10121880500F05BFC00210120B5
:10047000800500F056FC10BDF0B50A4600210023AF
:10048000002400BF3DE001258D402B4615681D402E
:100490002C469C4234D11579012D02D01579022DBC
:1004A00016D185684F000326BE40B5438560557957
:1004B0004E00B540866835438560858801268E40AC
:1004C000B5438580858896798E40B6B23543858060
:1004D00005684F000326BE40B543056015794E0000
:1004E000B540066835430560C5684F000326BE4029
:1004F000B543C560D5794E00B540C6683543C56083
:10050000491C1029BFD3F0BD35490160002101719C
:100510000221417100218171C171704708B501222A
:1005200012040092009A0A430092009AC261C161CB
:10053000009AC261C2690092C269009208BD024677
:100540000020138A0B40002B01D0012000E0002086
:1005500070470146088A704702460020938A0B4084
:10056000002B01D0012000E0002070470146888A5E
:1005700070478161704701857047002A01D0816111
:1005800000E00185704781827047F0B500230024A8
:100590004D07EE0E1546B5402B46CD10AE00054674
:1005A0002035AD594E07F70E0F26BE40B543CE108D
:1005B000B60007462037BD51CD10AE003D46AD59BF
:1005C0001D432C46CD10AD003E467451F0BD0000D9
:1005D0000004004800080048000C004800140048CF
:1005E000FFFF000000218278002A27D0274A03233A
:1005F0001B02D21803789B109B00D15802789207F7
:10060000D30EFF229A400B46934319464278920735
:10061000120E03789B07DB0E9A4011431B4A0323FB
:100620001B02D21803789B109B00D1500278D3068E
:10063000DB0E01229A40154B1A6007E00278D306C0
:10064000DB0E01229A40114B80331A60704700295B
:1006500005D00F4A126902430D4B1A6104E00C4A9F
:10066000126982430A4B1A617047042806D109496E
:10067000096904221143074A116105E00549096926
:1006800004229143034A11617047000000E100E039
:1006900000ED00E000E000E010B50121080700F0E7
:1006A0005CFB00210120000700F057FB10BD002873
:1006B00007D046490968FF2201321143434A1160BD
:1006C00006E042490968FF22013291433F4A116026
:1006D0007047014600203D4A1068E02302469A43D5
:1006E000104602460A431046384A106070470028F8
:1006F00006D03649096810221143344A116005E0DA
:100700003249096810229143304A1160704700292C
:1007100005D02E4A526802432C4B5A6004E02B4A03
:1007200052688243294B5A6070472949096904225B
:100730009143274A1161012801D130BF00E020BF59
:10074000704710B502460020204B186880088000D2
:100750000346134318461D4B18601D4B1B690424A8
:1007600023431B4C2361012901D130BF00E020BF8E
:10077000174B1B690424A343154C236110BD134878
:1007800000680421084311490860084600680221F6
:1007900008430E4908600E480069042108430C49CB
:1007A000086130BF704701460020084A52680A407D
:1007B000002A01D0012000E00020704703490968A9
:1007C00082001143014A1160704700000070004030
:1007D00000ED00E0FD48006801210843FB49086086
:1007E00008464068FA490840F849486008460068E9
:1007F000F8490840F5490860084600680121890465
:100800008843F2490860084640683F21090488434C
:10081000EE4948600846C06A00090001C8620846FF
:10082000006BFF2154318843E84908630846406B58
:100830004008400048630020886070470021E34A78
:10084000917011468870704710B502460021002350
:1008500000205111002902D1DC4C23680BE0012952
:1008600002D1DA4C236A06E0022902D1D74C636A2E
:1008700001E0D64C636BD106C90E01248C401C40AC
:10088000002C01D0012000E0002010BD38B5002070
:1008900000900024002500BF1120FFF7D5FF05467A
:1008A0000098401C0090052109020098884201D060
:1008B000002DF1D01120FFF7C7FF002801D001243F
:1008C00000E00024204638BD01460020BF4A1068E1
:1008D000F82302469A431046CA001043BB4A1060F0
:1008E0007047002806D0B949096801221143B74A68
:1008F000116005E0B549096849084900B34A11602B
:10090000704701460020B14A506BF82302469A43D3
:100910001046CA001043AD4A50637047002806D005
:10092000AA49496B01221143A84A516305E0A7492E
:10093000496B49084900A54A51637047002806D011
:10094000A249496B04229143A04A516305E09F49A3
:10095000496B042211439D4A516370479B49096AC0
:1009600049084900994A11621146096A04229143D3
:10097000964A11621146096A014311627047934910
:10098000096A18229143914A11621146096A01438A
:1009900011627047002806D08C49496A0122114330
:1009A0008A4A516205E08949496A49084900874AEB
:1009B00051627047854A52683D231B049A43834B1A
:1009C0005A601A46526803460B431A437F4B5A60DB
:1009D0007047002807D07D4909680122120611439B
:1009E0007A4A116006E079490968012212069143AA
:1009F000764A1160704701460020744AD06A0009A7
:100A0000000102460A431046704AD062704700282F
:100A100007D06E4909680122D20411436B4A116064
:100A200006E06A4909680122D2049143674A1160CD
:100A300070476649C871704701460020634A506894
:100A40008008800002460A431046604A50607047A2
:100A50005E4840680C2108407047014600205B4A10
:100A60005068F02302469A43104602460A43104655
:100A7000564A5060704701460020544A5068072388
:100A80001B0202469A43104602460A4310464F4A4A
:100A9000506070474D4949680122920391434B4A87
:100AA00051601146496882B21143484A516011466B
:100AB000096B92159143454A11631146096B020C6B
:100AC0001143424A116370474049096B40229143E8
:100AD0003E4A11631146096B0143116370473B495C
:100AE000096B10229143394A11631146096B014386
:100AF000116370473549096B89088900334A1163CE
:100B00001146096B014311637047FEB50446002589
:100B1000002600200190009000272C4840680C21FE
:100B200008400546002D04D0042D05D0082D28D1FD
:100B300005E02948206027E02748206024E023487A
:100B400040680F218904084006462048406801217A
:100B5000090408400190B00C861C0198002803D1BC
:100B60001E48704320600BE01848C06A0007000F61
:100B7000401C00901848009900F0AAFA70432060C9
:100B800002E01548206000BF00BF10484068F02117
:100B9000084005462D091248475D2068F84060600E
:100BA0000A48406807210902084005462D0A0C48FA
:100BB000475D6068F840A0600448006BFF21013188
:100BC0000840884210D00748E0601BE00010024057
:100BD0000CB8FFF8FFFFF6FE00127A0000093D0096
:100BE00010000020809FD5007548406801218903CE
:100BF0000840884203D0A0684008E06002E0A06896
:100C00008008E0606E48006B40210840402802D018
:100C10006C48206102E00120C00320616848006B3D
:100C200010210840102802D06748606101E0206868
:100C300060616348006B8007800F002802D1A068C4
:100C4000A06119E05E48006B8007800F012802D187
:100C50002068A06110E05A48006B8007800F0228CE
:100C600002D18003A06107E05548006B8007800F28
:100C7000032801D15448A061FEBD5149096A0143CE
:100C80004F4A11627047002807D04D49096A012276
:100C9000D20311434A4A116206E04949096A012216
:100CA000D2039143464A11627047002807D0444955
:100CB000096A012212041143414A116206E04049C7
:100CC000096A0122120491433D4A116270470029CA
:100CD00005D03B4A52690243394B5A6104E0384A15
:100CE00052698243364B5A617047002905D0344A15
:100CF00092690243324B9A6104E0314A926982431D
:100D00002F4B9A617047002905D02D4AD2690243C2
:100D10002B4BDA6104E02A4AD2698243284BDA611C
:100D20007047002905D0264A926A0243244B9A62F2
:100D300004E0234A926A8243214B9A627047002959
:100D400005D01F4AD26802431D4BDA6004E01C4AFA
:100D5000D26882431A4BDA607047002905D0184ADE
:100D600012690243164B1A6104E0154A1269824364
:100D7000134B1A617047002905D0114A527A024379
:100D80000F4B5A7204E00E4A527A82430C4B5A724D
:100D900070470B48406A0121090608430849486228
:100DA000704701460020064A92680A40002A01D096
:100DB000012000E000207047014988727047000060
:100DC000001002401280000000127A003A480068C9
:100DD0008007800F3849086000208860002136486D
:100DE000C160016141618069FF21013108433249DD
:100DF00088617047014600202F4A106880088000F3
:100E000002460A4310462C4A10607047002905D05C
:100E1000294A12680243284B1A6004E0264A1268E5
:100E20008243254B1A607047002905D0224A126878
:100E30000243214B1A6004E01F4A126882431E4B92
:100E40001A60704730B500228B071C0F0F23A34098
:100E50001A46194B08338C10A4001B599343164CA7
:100E600008348D10AD00635123468C10A4001B592B
:100E70008C07250F0446AC4023430F4C08348D10DB
:100E8000AD00635130BD0C49896901430A4A916143
:100E9000704701460020084A9269FF2301331A4037
:100EA000002A01D0012000E0002070470249896932
:100EB0000143014A916170470000014004488047A6
:100EC00004480047FEE7FEE7FEE7FEE7FEE7FEE731
:100ED000A70F0008C10000080CB500200190009089
:100EE000734800680121090408437149086000BF84
:100EF0006F48006801214904084000900198401C97
:100F000001900098002804D1052109020198884227
:100F1000EED167480068012149040840002802D04A
:100F20000120009001E0002000900098012839D1B4
:100F30001120604908605E4840685D494860084685
:100F400040684860084640683F2109048843584982
:100F50004860084640681121090408435449486024
:100F6000084600680121090608435149086000BF8E
:100F70004F4800680121490608400028F8D04C4835
:100F80004068800880004A4948600846406802215D
:100F900008434749486000BF454840680C21084065
:100FA0000828F9D10CBD10B541480068012108435B
:100FB0003F490860084640683F4908403C4948604E
:100FC000084600683D4908403949086008460068FD
:100FD00001218904884336490860084640683F215A
:100FE00009048843324948600846C06A0009000184
:100FF000C8620846006BFF21543188432C490863BE
:101000000846406B40084000486300208860FFF7B6
:1010100063FF10BDF8B500250024002600272448F2
:1010200040680C2108400546002D04D0042D06D050
:10103000082D2AD107E022482249086029E02048EB
:101040002049086025E01A4840680F2189040840BB
:101050000446174840680121090408400646A00CD0
:10106000841C002E04D118486043164908600BE028
:101070000F48C06A0007000F471C3946104800F0AF
:1010800027F860430F49086003E00D480D490860E8
:1010900000BF00BF06484068F021084000090B4926
:1010A0000D5C08480068E84006490860F8BD00008B
:1010B00000100240002002400CB8FFF8FFFFF6FECF
:1010C00000127A002000002000093D0024000020CA
:1010D00030B50B46014600202022012409E00D46D0
:1010E000D5409D4205D31D469540491B2546954058
:1010F00040191546521E002DF1DC30BD064C01256D
:10110000064E05E0E36807CC2B430C3C98471034AF
:10111000B442F7D3FEF7D8FF5C1100087C11000839
:1011200002E008C8121F08C1002AFAD170477047B0
:10113000002001E001C1121F002AFBD1704700000E
:10114000000200010000080000000800010000008B
:101150000000020001000000000005007C110008F2
:10116000000000203400000020110008B011000829
:1011700034000020040400003011000800000000CA
:101180000008004800080048000000480000000077
:10119000010203040102030406070809006CDC02D3
:1011A0000000000000000000010203040607080917
:04000005080000C12E
:00000001FF
