:020000040800F2
:1000000018040020FD010008F1010008F3010008B8
:1000100000000000000000000000000000000000E0
:10002000000000000000000000000000F7010008D0
:100030000000000000000000F9010008FB010008BA
:100040000F0200080F0200080F0200080F0200084C
:100050000F0200080F0200080F0200080F0200083C
:100060000F0200080F0200080F0200080F0200082C
:100070000F0200080F0200080F0200080F0200081C
:100080000F0200080F020008000000000F02000825
:100090000F0200080F0200080F0200080F020008FC
:1000A0000F0200080F0200080F0200080F020008EC
:1000B0000F020008000000000F020008000000000E
:1000C0000348854600F0BAF90048004737010008A8
:1000D000180400204048007800280BD03F480078E2
:1000E000002803D03E490120087008E03B49012068
:1000F000087004E0394900200870394908707047D9
:100100000A280BDA411CC8B201461031C8B2354981
:100110008969012282401143324A916170470A285D
:1001200008DA411CC8B22F49896901228240114373
:100130002C4A9161704708B500BF00BF00200090B5
:10014000294840690121C9040843274948612548D5
:100150000068264908432349086034E06946098855
:10016000C8B2FFF7DCFF69460888012803DA0820D7
:10017000FFF7C6FF05E069460988491EC8B2FFF7C8
:10018000BFFF1748007800280BD168460088401C44
:1001900081B2009168460088092812DD0020009095
:1001A0000FE068460088002803D0684600880928C8
:1001B00002DD0920009004E068460088401E81B2FC
:1001C0000091FFF787FFC9E708B50090002801DD1F
:1001D000401EFAE708BD00000000002002000020D9
:1001E000010000200008004800100240545515008E
:1001F000704700BFFEE7704770477047044880476C
:1002000004480047FEE7FEE7FEE7FEE7FEE7FEE7FD
:10021000E7020008C10000080CB500200190009022
:10022000734800680121090408437149086000BF50
:100230006F48006801214904084000900198401C63
:1002400001900098002804D10521090201988842F4
:10025000EED167480068012149040840002802D017
:100260000120009001E0002000900098012839D181
:100270001120604908605E4840685D494860084652
:1002800040684860084640683F210904884358494F
:1002900048600846406811210904084354494860F1
:1002A000084600680121090608435149086000BF5B
:1002B0004F4800680121490608400028F8D04C4802
:1002C0004068800880004A4948600846406802212A
:1002D00008434749486000BF454840680C21084032
:1002E0000828F9D10CBD10B5414800680121084328
:1002F0003F490860084640683F4908403C4948601B
:10030000084600683D4908403949086008460068C9
:1003100001218904884336490860084640683F2126
:1003200009048843324948600846C06A0009000150
:10033000C8620846006BFF21543188432C4908638A
:100340000846406B40084000486300208860FFF783
:1003500063FF10BDF8B500250024002600272448BF
:1003600040680C2108400546002D04D0042D06D01D
:10037000082D2AD107E022482249086029E02048B8
:100380002049086025E01A4840680F218904084088
:100390000446174840680121090408400646A00C9D
:1003A000841C002E04D118486043164908600BE0F5
:1003B0000F48C06A0007000F471C3946104800F07C
:1003C00027F860430F49086003E00D480D490860B5
:1003D00000BF00BF06484068F021084000090B49F3
:1003E0000D5C08480068E84006490860F8BD000058
:1003F00000100240002002400CB8FFF8FFFFF6FE9C
:1004000000127A000400002000093D0008000020CE
:1004100030B50B46014600202022012409E00D469C
:10042000D5409D4205D31D469540491B2546954024
:1004300040191546521E002DF1DC30BD064C012539
:10044000064E05E0E36807CC2B430C3C984710347C
:10045000B442F7D3FFF738FE80040008A004000878
:1004600002E008C8121F08C1002AFAD1704770477D
:10047000002001E001C1121F002AFBD170470000DB
:10048000A00400080000002018000000600400081C
:10049000B8040008180000200004000070040008E0
:1004A00000000000006CDC02000000000000000002
:0804B00001020304060708091C
:04000005080000C12E
:00000001FF
