:020000040800F2
:1000000058050020F1030008E5030008E703000895
:1000100000000000000000000000000000000000E0
:10002000000000000000000000000000E9030008DC
:100030000000000000000000EB030008ED030008D2
:100040000304000803040008030400080304000874
:100050000304000803040008030400080304000864
:100060000304000803040008030400080304000854
:100070000304000803040008030400080304000844
:100080000304000803040008000000000304000843
:100090000304000803040008030400080304000824
:1000A0000304000803040008030400080304000814
:1000B0000304000800000000030400080000000022
:1000C0000348854600F08EFD004800478B0100087C
:1000D00058050020F8B505460F460026002406E026
:1000E00002CD304600F091FA0646641C64B2BC4270
:1000F000F6DB384600F020FB0146304600F0DEFA21
:10010000F8BD10B500F023FB02460B4641A1434861
:1001100000F038FE10BDF8B504460E4615461F46E1
:100120003FA000F0FCF8641C20B200F008F90A229D
:100130002946304600F05AFA002812D03AA000F0C2
:10014000EEF8304600F0EBF839A000F0E8F8284669
:1001500000F0E5F838A000F0E2F8384600F0DFF8EB
:100160000FE036A000F0DBF8304600F0D8F835A0FC
:1001700000F0D5F8284600F0D2F833480178491C41
:10018000017032A000F0CBF8F8BDA0B02E4D0020D9
:10019000287000F09BF800F009F92DA000F0BFF8DE
:1001A00037A000F0BCF8002427486101001D0918A1
:1001B0002022684600F008FA0021684608AE6F4623
:1001C000037805E08800C21952683250491CC9B250
:1001D0008B42F7D868460021415608A8FFF77AFFFE
:1001E000FFF78FFF0D492046079B069AFFF793FF05
:1001F000641CE4B2092CD7D32AA000F090F8287828
:1002000000F09DF82BA000F08AF82EA000F087F8EF
:10021000FEE70000252E31660000000038010020B6
:10022000544553543A200000204641494C3A20009E
:1002300020213D20000000002000000020504153FC
:10024000533A2000203D2000000000200A0000005A
:10025000546869732069732074657374636F64658F
:1002600020666F7220666C6F6174696E6720706FB4
:10027000696E742061726974686D657469630A00DF
:10028000546865206F7574707574206F662074688B
:1002900065207465737463617365732069730A0AFA
:1002A000000000000A596F75207061737365642047
:1002B00000000000206F6620746865207465737408
:1002C000730A000052656164790000003F4841698B
:1002D00001225204114341610921C9060A6805231C
:1002E000DB041A430A604A6AFF2311331A434A6245
:1002F00081690122920311438161FF213448A131B8
:1003000081810D2101600021416081607047304989
:10031000CA691206FCD52E4920310881704700B504
:10032000034608E00A2802D10D20FFF7F0FF1878F5
:100330005B1CFFF7ECFF18780028F3D100BDFEB579
:1003400000240025234E002804DA2D2131700125D8
:10035000404200B26F460A2100F022F9303139558F
:10036000641C24B200B20028F5DC06E0641E2846B6
:1003700024B2395D6D1C2DB23154002CF6DC002006
:1003800070551448FFF7CBFFFEBD1148C16909073E
:1003900003D5016A082211430162C1698906FCD5AF
:1003A0000B4820308088C0B2704770470EB50AA055
:1003B00003C8029101900AA00068009001A8FFF70D
:1003C000AEFF6846FFF7ABFF0EBD00000010024015
:1003D000003801404C0100201B5B324A0000000045
:1003E0001B5B66007047FEE7704770477047000070
:1003F0000448804704480047FEE7FEE7FEE7FEE7C3
:10040000FEE7FEE7A1040008C10000081CB50023B8
:1004100001930093504801680122120411430160C6
:1004200051000524240202680A400092019A521CDD
:100430000192009A002A02D1019AA242F3D10168E6
:10044000890302D50121009100E000930099012960
:1004500025D1424911220A604168416041684160EA
:1004600041683F2212049143416041681122120405
:1004700011434160016801221206114301600168C5
:100480008901FCD5416889088900416041680222E0
:100490001143416041680907890F0229FAD11CBD47
:1004A0002D48016801221143016041682C4A114026
:1004B000416001682B4A11400160016801229204E9
:1004C0009143016041683F22120491434160C16A37
:1004D00009090901C162016BFF2254329143016392
:1004E000416B490849004163002181608EE770B586
:1004F000194E71680C2001401B481C4C00290ED07D
:1005000004290ED008290ED0206070681749000613
:10051000000F091D085C2168C140216070BD20608A
:10052000F3E72060F1E771680F22920411407268CE
:1005300001231B041A408D0CAD1C002A08D0F16A5F
:100540000907090F491C00F015F868432060DCE733
:10055000074845432560D8E70010024000200240CC
:100560000CB8FFF8FFFFF6FE00127A00240100200D
:1005700000093D0030B50B46014600202022012431
:1005800009E00D46D5409D4205D31D469540491BC7
:100590002546954040191546521E002DF1DC30BD10
:1005A00070B500242546002801DA012440420029C4
:1005B00001DA01254942FFF7DDFFAC4200D040429D
:1005C000002C00D0494270BD03460B439B0703D06B
:1005D00009E008C9121F08C0042AFAD203E00B7808
:1005E0000370401C491C521EF9D2704730B50546B5
:1005F0000020034600E05B1C934205D2EC5CC85C23
:10060000201A01D1002CF6D130BDF8B502464A407F
:10061000D40F42004B0052085B089A4202D20246B5
:10062000084611464A0023D0C30D4A00DDB2120E1F
:10063000AD1A202D35DA49020126490AF6058A1934
:10064000002C00D0524220214F1B1146B9402A41B4
:100650001018C20D9A4221D0002C17D0012D08DCB1
:10066000DA05801AD20F8019D207DBB200F0BBF88E
:10067000F8BDDA05801A012340001B06C018801857
:100680005A428018CA0F1043490007E04908C207C0
:100690001143DA05801A80194008801800F09BF891
:1006A000F8BD61000122511A001BF7E70122D207B1
:1006B0005140AAE70122D2075040A6E770B5024692
:1006C0004A40D50F40004A00ED0740085208002874
:1006D00014D0002A12D0C40DD30D41020120C00550
:1006E0005202490A520AE41A091812187D3491423A
:1006F00001D3641C00E04900002C01DA002070BD29
:100700000023914201D3891A03434008490000287D
:10071000F7D100290AD0914202D10121C90705E091
:10072000914201D2012101E00121C943E005C01835
:10073000401900F050F870BDC217C10F504010B5FD
:100740004018CA079623002100F04DF810BDC20FD3
:10075000D207400040080BD0C10D0723DB01C918A8
:1007600040020905400A1143C2084007114370477F
:10077000002001467047F0B51FB40646002082B045
:1007800005464024019100901BE0019922460F4646
:10079000304600F049FA049A059B801A994110D31B
:1007A00010461946224600F02FFA361A8F4101975B
:1007B000224601200021009F00F026FA38184D4102
:1007C00000902046641E0028DFDC019B009829462B
:1007D000324607B0F0BD002904DA401C490001D1BF
:1007E00040084000704770B40024050C05D1102467
:1007F000000402D1002921D01124050E01D10002EC
:100800000834050F01D10001241D850F01D180009E
:10081000A41C002801DB4000641C002908D020250E
:100820002E1B0D46F540A14000D00121294308436D
:1008300001061B1B000ADB1D02D5002070BC70479F
:10084000DB05181880180029F8DA401C4900F5D19A
:1008500070BC400840007047F0B507460846584055
:1008600087B0C00F049048000E4659004008490860
:10087000BC1A884105D2384631461E4617460B46FB
:1008800002465800400810434CD0300D03904005FC
:100890005900400D490D0590401A0290402872DA27
:1008A00018030121000B09050843019004980092E8
:1008B000002805D001995242002088410092019001
:1008C000029840210A1A0199009800F09DF9054606
:1008D0000C466B4607CB00F0B8F9C0197141039A7A
:1008E0000E0D0023D71756401A467A40164344D0BF
:1008F000049A002A2DD0029A012A039A15DC1205C7
:10090000C01A914101263605001C7141D20F059E87
:10091000D2070093019202962A46234600F0B5F9C9
:1009200007B0F0BD38463146FAE71605224A0F46B1
:10093000B218C01AB74101210905001C4F41001827
:100940007F41114618187941E20F10436D19644137
:1009500013E0E2076D0815436408C2071443039AC5
:1009600001261205C01A91413605001C7141CE07BF
:10097000400830434908C01851412A46234600F038
:1009800077F9CDE7FFE7049801224000C117121A5A
:1009900000238B4104983146C417381AA141EEE771
:1009A00030B40124E407634030BC55E730B401247F
:1009B000E407614030BC4FE70000E0FFF0B51FB432
:1009C00088B00B990998002448400999C00F490044
:1009D00049080991C0070B990090490049080B91FB
:1009E00009990898A64608431CD00B990A98084311
:1009F00018D0099801244000420D4800410D099883
:100A000024050003000B204309900B980003000B02
:100A100020430B9050181C494018002201901446A6
:100A2000104605E0002001460DB0F0BD032801DAB4
:100A3000034600E003239C46C11A0AAE0AE05F00A9
:100A400008ADED5B4F00F75B7D430027AA187C41A2
:100A5000491C5B1E6145F2DD410004AB5A52210482
:100A6000120C0A43240C401C0828DFDB019802907A
:100A70000099704601910090059B049A0799069889
:100A800000F003F9D0E700000DFCFFFFF0B50C46C5
:100A90005C4085B0E40FE40703944C000026640832
:100AA00059009446490802460296224321D06246E4
:100AB0000A431ED06200570D4A000E032303550D52
:100AC000012402462C492405781B1B0B360B4018C9
:100AD00023432643614600901C46501AB44103D379
:100AE0000098401C009002E0921800985B4100289A
:100AF00003DA0020014605B0F0BD00200121090500
:100B00000746864611E064461D46141BB54106D3D0
:100B10006546521BB341744607430C43A646CD07B6
:100B200040084908284392185B4105460D43EAD125
:100B30001046184313D06046194650407140084390
:100B400006D06046101AB34106D20122002306E007
:100B500000220123DB0702E00122D2435310009858
:100B600074460105381C6141029C039D00196941CE
:100B700000F07EF8BFE70000FD0300004A00090313
:100B80000123090B1B0519430A4B10B5520D9A425C
:100B900002DA0020014610BD064B34339A4203DCD2
:100BA0009A1A00F041F810BD034BD21800F02CF84F
:100BB00010BD0000FF030000CDFBFFFF10B50029B2
:100BC00004DB0124E40740428C412146002B04DB76
:100BD0001C460123DB075242A341994200D19042B7
:100BE00010BD0000064C0125064E05E0E36807CC69
:100BF0002B430C3C98471034B442F7D3FFF764FA08
:100C0000641700088417000810B5202A04DB014689
:100C1000203A9140002010BD914020239C1A0346A9
:100C2000E3401943904010BD10B5202A04DB08466C
:100C3000203AD040002110BD0B46D340D0402024A4
:100C4000A21A91400843194610BD10B5202A06DBB0
:100C5000CB170846203A1041C1170B4306E00B465C
:100C60001341D0402024A21A91400843194610BDD8
:100C700010B5002B08DA0024401C614192185B413A
:100C80001A4301D14008400010BDF0B51FB482B036
:100C900005460C0003D0084600F088F802E000F09A
:100CA00085F820300246009021462846FFF7ACFF29
:100CB000049B059A04460F4618431143084314D079
:100CC000184610431BD0009840210A1A184605996F
:100CD000FFF7AAFF05460E46009A05990498FFF70C
:100CE00093FF084305D0012004E02046394607B0B1
:100CF000F0BD0020C11705430E432C433743009934
:100D00000E986305401A7905E40A00220C43FD0A97
:100D10000A3002D500200146E9E7010510196941B2
:100D20000C9C0D9D00196941FFF7A2FFDFE770B52C
:100D30008C180578401C6B075B0F01D10378401CB1
:100D40002A1106D10278401C03E006780E70401C80
:100D5000491C5B1EF9D12B0705D40023521E0DD46C
:100D60000B70491CFAE70378401CCB1A921C03E075
:100D70001D780D70491C5B1C521EF9D5A142D8D3B9
:100D8000002070BD0FB410B504A9074B02AA039848
:100D900000F0ECF8044602A9002000F083FC204695
:100DA00010BC08BC04B01847A51600082021020C8E
:100DB00001D010211046020A01D01046083902095C
:100DC00001D01046091F820801D01046891E420832
:100DD00001D0881E7047081A704702E008C8121F29
:100DE00008C1002AFAD170477047002001E001C114
:100DF000121F002AFBD17047F0B51FB486B00998C6
:100E0000089A030D0021024314D05148514A181882
:100E1000504305141198012810981AD0281A401C24
:100E200000264D4F4D49009601910490002812DA9A
:100E3000444211E01198012449A3012801D11098DE
:100E4000C1430698119A84600360C26041600BB090
:100E5000F0BD4042E4E70446210500203F4A001C63
:100E600051410391029012E0E00707D032463B4621
:100E700001990098FFF7A2FD0191009032463B4690
:100E800010461946FFF79AFD06460F466410002CDF
:100E9000EAD10498039B0028029A0999089806DA77
:100EA000FFF78CFD019B009AFFF788FD05E0FFF737
:100EB000EDFD019B009AFFF7E9FD04460E46002276
:100EC000284BFFF77BFE03D80020C043014607E014
:100ED0000022254B20463146FFF7BEFCFFF74EFEB1
:100EE000102409E0002C0ADB0A220023FFF743FC50
:100EF000079B30321A55641E02460A43F2D1112272
:100F0000641C079B121B1C19119B012B03D001238E
:100F100008430ED10AE0084304D0112010900020AD
:100F2000119077E71098151A6D1E0BE01098824209
:100F300002DD00236D1C03E0824201DA00236D1EF6
:100F4000002BEED0069811998260C16030C07EE718
:100F500001FCFFFF104D0000000014400000F03FB6
:100F6000300000000000F0430000E03FFFB597B004
:100F70000646002518E2252877D100242746FD499A
:100F8000049400E00443761C32780120203A90401B
:100F90000842F7D130782A280ED002223078014654
:100FA0003039092916D804990A2359433039401891
:100FB0001443761C0490F1E7189802C80491189025
:100FC000002904DA0120400304434842049002202F
:100FD0000443761C30782E2814D104200443707802
:100FE000761C2A2809D11898761C80C8189009E028
:100FF0000A214F43303FC719761C307801463039FB
:101000000929F5D930786C2810D006DC4C281AD084
:1010100068280ED06A2817D104E0742813D07A28E3
:1010200012D110E00120400504430CE00121090524
:1010300001E0032109050C437178814203D10120AD
:1010400000052418761C761C3078119066280BD089
:1010500013DC58287DD009DC00287BD04528F6D049
:101060004628F4D047281AD1A5E118E0632835D0E6
:10107000642870D0652812D19DE170286CD008DCFE
:101080006728F1D069287BD06E280DD06F2806D153
:10109000BAE073282ED0752871D0782859D01A9AC2
:1010A000199990476D1C7EE16002400F022809D01B
:1010B00003280DD00428189801680DD00D60001D7C
:1010C000189070E11898EA1701680D604A60F6E719
:1010D000189801680D80F2E70D70F0E718986A46DD
:1010E00001781172001D18900020507202A8009023
:1010F000012005E0189802C8189000200091C04314
:1011000061070DD5002101E00199491C0191B94207
:1011100012DA8142F8DB009A515C0029F4D10BE02D
:10112000002101E00199491C01918142FADB019AF9
:101130000099895C0029F5D1019904981A9B471AF6
:1011400021463846199A00F097FA01994019451836
:101150000BE04FE02CE113E04EE00098009900789E
:10116000491C00911A9A199990470198401E0190C4
:10117000401CF2D1214638461A9B199A10E137E0FB
:101180000A200021009001916002410F022907D03E
:10119000189A01CA1892C2179446032908D00AE087
:1011A0001898C01DC108C90005C91891944607E0E8
:1011B00000B2C2179446042902D140B2C1178C462E
:1011C00000226146944506DA0A46002140429141D8
:1011D0008C462D2102E0210504D52B216A4611738E
:1011E000012103E0E10701D02021F7E7029155E05A
:1011F0000A200AE0102008E01020009000210420BE
:1012000004430191082703E0082000210191009088
:101210006002410F022907D0189A01CA18920022D1
:101220009446032908D008E01898C01DC108C900D9
:1012300005C91891944603E080B2042900D1C0B2D8
:1012400000210291210729D51199702906D0009A11
:101250001021019B4A401A4305D00EE040216A4606
:101260001173012108E06146014306D030216A462E
:1012700011731199517302210291009A0821019B67
:101280004A401A430AD16146014301D1610705D59D
:1012900030216A46117301217F1E0291119958294C
:1012A00004D035A10E910DA90D910DE037A1F9E7FC
:1012B0006146019B009AFFF75EFA0E9B8C469B5C91
:1012C0000D9A521E0D92137061460143F0D10D9894
:1012D00005A9081A20300190600703D501200004F9
:1012E000844300E001270198874201DD381A00E0BD
:1012F0000020019900904118029809180498401A9A
:101300000490E00306D421461A9B199A049800F031
:10131000B3F94519002706E003A81A9AC05D199988
:1013200090476D1C7F1C02988742F5DBE0030CD5CB
:1013300021461A9B199A049800F09EF9451904E079
:101340001A9A3020199990476D1C0099481E0090F8
:101350000029F5DC08E00D980D990078491C0D91E5
:101360001A9A199990476D1C0199481E01900029FD
:10137000F1DC63E10928010030313233343536378E
:1013800038396162636465660000000030313233D1
:101390003435363738394142434445460000000071
:1013A00000F05AF94519761C3078002800D0E2E5A3
:1013B00028461BB0F0BD600700D406271898C01D52
:1013C000C108C90048680A680831C30FDB071891D3
:1013D000190001D09CA108E0210501D59BA104E0E2
:1013E000E10701D09AA100E09AA1430011985B089F
:1013F000109165280CD006DC452809D046281DD060
:10140000472841D141E0662818D067283CD13CE00C
:101410000021112F01DB112000E0781C01910090C8
:1014200008A911A8FFF7E8FC139905910021119A6A
:1014300015927F1C12980197009150E00120C0077F
:1014400003900120019008A9009711A8FFF7D4FC90
:10145000139A149905920022119B009212981593E9
:10146000059A0192002901D0104602E0791C40182B
:101470000190381A01D5019804E04042401E0090C6
:10148000781C0190C01B029043E0012F00DA012775
:101490000021112F01DD112000E03846019100905C
:1014A00008A911A8FFF7A8FC13990591119A00212A
:1014B000129815920091019721070CD40599B94211
:1014C00001DB019900E00191012904DD159A491E13
:1014D000515C302906D0B84201DA011D05DA01213C
:1014E000029115E00199491EEDE7002805DC0099FD
:1014F000411800910199091A03E0019A411C914297
:1015000000DD01910099401A401C02900120C007A3
:101510000390200706D402990198814202DB002043
:10152000C043029000206946C87707AF01210398A5
:101530000337C907884224D0022011902B20129033
:10154000039800280CDA404203902D20129007E007
:101550000A210398FFF70EF830317F1E039039708F
:101560001199481E11900029F2DC03980028EFD150
:10157000791E129808703078202108404530BF1E2F
:10158000387006A8C01BC01D039010980078002872
:1015900000D00120019941180298C017091803983A
:1015A00009180498401A401E0490E00306D421460E
:1015B0001A9B199A049800F05FF845191098007862
:1015C000002803D01A9A199990476D1CE00324D57E
:1015D00021461A9B199A049800F04EF845191CE010
:1015E0000098002807DB00990598884203DD1598CC
:1015F000405C199901E0199930201A9A9047009897
:101600006D1C401C00900298401E0290002804D1DE
:101610001A9A2E20199990476D1C0199481E019025
:101620000029DDDC05E038781A9A7F1C199990476B
:101630006D1C0399481E03900029F4DC21461A9B77
:10164000199A0498ACE600002D0000002B00000061
:101650002000000000000000F8B5044600251E46EA
:101660001746880404D405E039462020B0476D1C95
:10167000641EF9D52846F8BDFFB50446002581B0A3
:101680001E46C80301D5302700E02027880404D572
:1016900005E038460399B0476D1C641EF9D528460D
:1016A00005B0F0BD0A68531C0B6010707047000055
:1016B0006E65676174697665202B20706F7369743D
:1016C000697665206E756D62657220003131302E4D
:1016D000300000002D32302E30000000302E30005F
:1016E000312E3000302E310032342E320000000016
:1016F00033362E330000000033362E340000000055
:101700002D31392E35000000617665726167650004
:1017100073696D706C650000617665726167652044
:101720007769746820726F756E64696E6700000077
:10173000726F756E64696E67206E65676174697635
:10174000652076616C75657300000000756E6465D8
:1017500072666C6F770000006F766572666C6F77EB
:10176000000000008417000800000020380100007D
:101770002E0D0008FC17000838010020200400008E
:10178000EA0D00084152010310803F13E0161408CF
:1017900010172A08200510CDCCCC3D5AE420320287
:1017A0002D3333114204C11AF0209A0820CB9A99A4
:1017B000201AF8201A18200A1503205AE82052058A
:1017C0001ADC1CC9041ACC207A5820EBA0C1041AD8
:1017D000D4205A4C8049141A9804B1191CBA3020EC
:1017E000C3A0411ADC401AB004114B6CDC23310059
:0C17F000090001020304060708090000BC
:04000005080000C12E
:00000001FF
