:020000040800F2
:1000000020060020A9030008B1030008B30300087C
:1000100000000000000000000000000000000000E0
:10002000000000000000000000000000B503000810
:100030000000000000000000B7030008B90300083A
:10004000BB030008BB030008BB030008BB03000898
:10005000BB030008BB030008BB030008BB03000888
:10006000BB030008BB030008BB030008BB03000878
:10007000BB030008BB030008BB030008BB03000868
:10008000BB030008BB03000800000000BB0300081E
:10009000BB030008BB030008BB030008BB03000848
:1000A000BB030008BB030008BB0300088103000872
:1000B000BB03000800000000BB03000800000000B4
:1000C0000348854600F090FA00480047D500000834
:1000D0002006002070B50125642000F0A7FA284909
:1000E000086008460068002800D170BD25484069B6
:1000F0000121C904084323494861234800680521B8
:100100000904084320490860084680880321090241
:1001100088431D498880084680680F2109040843E8
:10012000194988600846C0680F21090488431649A8
:10013000C86000F073F800F0CCF814A000F0B8F834
:100140001DA000F0B5F824A000F0B2F816E00024DD
:10015000012040020C498861000488610848006859
:100160000478AC4209D0254628A000F0A1F820462A
:1001700000F093F817A000F09BF800BFE7E700003D
:100180000000002000100240000800485468697315
:100190002069732053544D33324630206D696372A9
:1001A0006F636F6E74726F6C6C6572206C657373C5
:1001B0006F6E20322E0A000050726573732044491E
:1001C00046464552454E54206368617261637465CA
:1001D00072732E0A0A000000576879206973207430
:1001E000686520677265656E204C4544206E6F74AB
:1001F00020626C696E6B696E6720636F6E74696EE6
:10020000756F75736C793F3F0A0A0000596F75204E
:10021000707265737365643A2000000010B5504831
:1002200040690121490408434D4948610920C0063D
:1002300000680521C90408430921C9060860084669
:10024000406AFF21113108430921C9064862444828
:10025000806901218903084341498861FF20A13059
:10026000404988810D200860002048608860084669
:100270000068202108433B4908601B200121814080
:10028000394A116000BF002100F032F81B20012123
:100290008140364A116000BF10BD00BF3149C969B5
:1002A000802211400029F9D02E4920310881704761
:1002B00000B5034609E018780A2802D10D20FFF79F
:1002C000ECFF18785B1CFFF7E8FF18780028F2D1E4
:1002D00000BD0EB526A103C90291019026A00068B9
:1002E000009001A8FFF7E4FF6846FFF7E1FF0EBDAD
:1002F00010B5002819DA214A03071B0F083B9B0899
:100300009B00D2588307DC0EFF23A3409A438B0740
:100310001B0E8407E40EA3401A43184B0407240F56
:10032000083CA408A4001A5118E00F4A03231B023A
:10033000D21883089B00D2588307DC0EFF23A3400A
:100340009A438B071B0E8407E40EA3401A43064B07
:10035000032424021B198408A4001A5110BD0000B4
:10036000001002400038014000E100E080E200E0BF
:100370001B5B324A000000001B5B66001CED00E0C6
:100380000748C06920210840002807D00020044900
:1003900020318988034A1268115400BF7047000059
:1003A000003801400000002004488047044800470E
:1003B000FEE7FEE7FEE7FEE7FEE7FEE79304000840
:1003C000C10000080CB5002001900090734800683F
:1003D0000121090408437149086000BF6F480068A3
:1003E00001214904084000900198401C01900098A8
:1003F000002804D10521090201988842EED16748FE
:100400000068012149040840002802D00120009022
:1004100001E0002000900098012839D111206049A6
:1004200008605E4840685D4948600846406848602A
:10043000084640683F2109048843584948600846F7
:10044000406811210904084354494860084600687F
:100450000121090608435149086000BF4F48006860
:100460000121490608400028F8D04C48406880081F
:1004700080004A49486008464068022108434749CD
:10048000486000BF454840680C2108400828F9D161
:100490000CBD10B541480068012108433F49086080
:1004A000084640683F4908403C49486008460068A3
:1004B0003D4908403949086008460068012189041F
:1004C000884336490860084640683F21090488434C
:1004D000324948600846C06A00090001C8620846FF
:1004E000006BFF21543188432C4908630846406B58
:1004F00040084000486300208860FFF763FF10BD9C
:10050000F8B50025002400260027244840680C2167
:1005100008400546002D04D0042D06D0082D2AD110
:1005200007E022482249086029E020482049086065
:1005300025E01A4840680F218904084004461748FE
:1005400040680121090408400646A00C841C002EC6
:1005500004D118486043164908600BE00F48C06A90
:100560000007000F471C3946104800F027F8604389
:100570000F49086003E00D480D49086000BF00BF47
:1005800006484068F021084000090B490D5C084806
:100590000068E84006490860F8BD0000001002400D
:1005A000002002400CB8FFF8FFFFF6FE00127A00B0
:1005B0000400002000093D000800002030B50B4673
:1005C000014600202022012409E00D46D5409D422D
:1005D00005D31D469540491B2546954040191546B3
:1005E000521E002DF1DC30BD064C0125064E05E003
:1005F000E36807CC2B430C3C98471034B442F7D344
:10060000FFF762FD98060008B806000802E008C877
:10061000121F08C1002AFAD170477047002001E07C
:1006200001C1121F002AFBD170470000F0B50B304A
:10063000C108C900144F0026144A0FE003688B421A
:100640000BD38B4205D95C1A4318456830C3083B6D
:1006500000E04368136002C004E0021D1068002837
:10066000ECD13046002803D13868002801D00020A2
:10067000F0BD064A06481060064A121AD208D20097
:1006800044C001203860D7E71C000020180000207B
:100690002400002020020020B806000800000020EE
:1006A000200000000C060008D806000820000020EA
:1006B000000600001C06000800000000006CDC02C0
:1006C0000000000000000000010203040607080902
:0806D000000000000000000022
:04000005080000C12E
:00000001FF
