:020000040800F2
:10000000080700201D1E0008251E0008271E0008E6
:1000100000000000000000000000000000000000E0
:10002000000000000000000000000000291E000881
:1000300000000000000000002B1E0008D102000894
:100040002F1E00082F1E00082F1E00082F1E00085C
:100050002F1E00082F1E00082F1E00082F1E00084C
:100060002F1E00082F1E00082F1E00082F1E00083C
:100070002F1E00082F1E00082F1E00082F1E00082C
:100080002F1E00082F1E0008000000002F1E000871
:100090002F1E00082F1E00082F1E00082F1E00080C
:1000A0002F1E00082F1E00082F1E00082F1E0008FC
:1000B0002F1E0008000000002F1E00080000000096
:1000C00000F002F800F03EF80CA030C80838241800
:1000D0002D18A246671EAB4654465D46AC4201D180
:1000E00000F030F87E460F3E0FCCB6460126334274
:1000F00000D0FB1AA246AB46334318473C1F000012
:100100005C1F0000103A02D378C878C1FAD85207B1
:1001100001D330C830C101D504680C6070470000BD
:100120000023002400250026103A01D378C1FBD813
:10013000520700D330C100D50B6070471FB51FBDFB
:1001400010B510BD01F036FF1146FFF7F7FF00F0C4
:1001500077F801F04EFF03B4FFF7F2FF03BC01F0A4
:1001600055FF000010B501218CB0084600F038FDA5
:100170004A4C204601F014FD49480090494801903E
:1001800000210A20039080200590049102918001B3
:100190000691079108910A9109906946204601F05D
:1001A00031FD3F4801224021243801F021FC01218A
:1001B000204601F050FD0CB010BD30B589B0684646
:1001C00000F036FE0121022000F01CFD00246946EB
:1001D0000C814C80344801900820344D088028461A
:1001E00000F0FAFD602069468881022088830120A2
:1001F000C88105940C8303A9284600F0C2FE0121A2
:10020000284600F05AFE09B030BD1CB5684600F023
:10021000B8FA0121C80400F0E3FC0221684601712C
:1002200080200090032168464171214C6946204698
:1002300000F06FFA01220721204600F0D6FA1CBD1B
:10024000002000F047F9012000F044F900F0A0F888
:10025000FFF7DBFFFFF7B1FFFFF784FF00F0EAF8DD
:1002600014A000F0C8F816480A21006801F0F2FD59
:10027000144988420ED801401348491E4161134970
:100280000722CB691B021B0A44042343CB610021D4
:1002900081610261012001F042FCFBE73000024075
:1002A000243801406D0000206F170000000400405A
:1002B000000800480A48616C6C6F210A0A000000BF
:1002C00094000020FFFFFF0000E000E004ED00E0EC
:1002D000F8B52A4C00266078002811D0A0780028B4
:1002E00002D0401EA070F8BD002000F016F90120D9
:1002F00000F013F90021224800F007FF6670F8BDF6
:1003000020790B28FBD81D491C4A6D31095C521D10
:1003100089008918E27801258918FF39A139097FF8
:10032000184F21702E2905D02D2913D0401C207183
:10033000E670F8BD14A000F05EF8002000F0E4F8CC
:10034000012000F0E1F839460D4800F0DEFE65704E
:10035000A5700FE00DA000F04EF8002000F0D4F8DA
:10036000012000F0D1F83946054800F0CEFE657056
:100370000320A070E078401CE070F8BD0000002071
:1003800000040040B80B00002E0000002D0000000B
:1003900010B5012188B0480400F022FC0221684613
:1003A0000177032040020690032168464177092126
:1003B000CC060122204600F018FA01220A2120462C
:1003C00000F013FA06A9204600F0A3F901218803E2
:1003D00000F00FFC684601F0AFF9E1204002394C13
:1003E00000906946204601F054F90121204601F0B1
:1003F000C2F908B010BD70B50446324D16E00A28A7
:1004000009D18021284601F030FB0028F9D00D21C8
:10041000284601F041FA8021284601F026FB0028F9
:10042000F9D021782846641C01F036FA207800289B
:10043000E5D170BD0EB524A103C90090019124A09F
:10044000006802906846FFF7D6FF02A8FFF7D3FFC7
:100450000EBDFEB500240E462546002804DA2D21E7
:1004600001244042317000B27D22D20030219042FE
:1004700001DA3155641C642801DA3155641C0A28FC
:1004800001DA3155641C6F460A2101F0EDFC303170
:1004900079556D1C00B22DB20028F5DC05E06D1E0B
:1004A0002DB2785D3055641C24B2002DF7DC00209D
:1004B00030553046FEBD08B50090002801DD401ED5
:1004C000FAE708BD003801401B5B324A000000001B
:1004D0001B5B66007CB504468500434801214059FA
:1004E00000F07EFB404960000A39085A0090012064
:1004F0006946087100208871C871032048713B4823
:10050000405900F006F97CBD374A41000A3A515A79
:10051000364A8000105881617047334A41000A3AD8
:10052000515A324A80001058018570472F49820085
:1005300089588A8A2C4B40000A3B185A42408A82CA
:100540007047F3B505468700274885B0001FC0599E
:10055000012100F045FB0121084600F04AFB00267E
:1005600068460673C67320486C001438005B02901E
:100570001E4802A9001FC05900F0CBF806980128B8
:1005800023D119480E38015D801E005D00F0B4FBD8
:1005900015481238005B009068460671002D01D0A6
:1005A000082000E00C2069464871012568468571E5
:1005B00000F028F80C480C38015D684601740321EE
:1005C0004174857404A800F02BF907B0F0BD064A09
:1005D00010B54100143A515A044A8000121F1058B5
:1005E00000F0E5F810BD0000302000087C0000207D
:1005F000324831490160002141608160C160304969
:100600004161704710B583792C490268002B26D0D0
:100610000B6893430B604A6803689A434A60027907
:10062000521813680468234313608A6803689A4366
:100630008A60CA6803689A43CA604279102A05D062
:1006400051180A68006802430A6010BD8A6803688E
:100650001A438A60CA6800680243CA6010BD007904
:10066000401801689143016010BD002101600171D3
:100670000C2242718171704710490A6902430A6174
:1006800070470E4A0146526900200A4200D00120FC
:1006900070470A4948617047084A014613680020BC
:1006A00052690B400A4202D0002B00D00120704753
:1006B00002494861704700000000940F00040140A7
:1006C000FFFF6B00092110B5C906884202D1012144
:1006D0004C0404E04D49884209D10121040220461E
:1006E00000F099FA0021204600F095FA10BD484923
:1006F000884202D101210402F1E74649884202D131
:1007000001210C05EBE744498842EFD101218C051A
:10071000E5E7F0B50022012423460D6893401D4013
:100720009D422AD10D79012D01D0022D12D1876869
:1007300055000326AE40B74387604E79AE408568CA
:100740002E43866085889D43858085888B7993407C
:100750001D438580066855000323AB409E43066019
:100760000E790768AE403E430660C6689E43C66089
:10077000CB79AB40C5682B43C360521C102ACBD346
:10078000F0BD264901600021017102224271817190
:10079000C1717047012208B512040A430092C26178
:1007A000C1610099C161C169C069009008BD02467C
:1007B000128A00200A4200D001207047008A704748
:1007C0000246928A00200A4200D001207047808AA7
:1007D00070478161704701857047002A01D08161AF
:1007E000704701857047818270474B07DB0E9A4046
:1007F000C90810B589000818016A0F249C40A1435C
:100800000162016A1143016210BD0000000400484A
:1008100000080048000C004800140048FFFF0000DA
:1008200030B5837801210278002B15D09408174B3E
:10083000A400E41823689207D50EFF22AA40934330
:1008400042789207120EAA401A4322600078C0062E
:10085000C00E81400E4804E0D006C00E81400C4816
:100860008030016030BD0B4A0029116901D001437D
:1008700000E0814311617047042207490428086998
:1008800002D09043086170471043FBE700E400E0AA
:1008900000E100E000ED00E000E000E0F748016862
:1008A0000122114301604168F54A1140416001682D
:1008B000F44A1140016001680122920491430160F1
:1008C00041683F22120491434160C16A090909014C
:1008D000C162016BFF22543291430163416B4908AD
:1008E00049004163002181607047E44900228A7019
:1008F0008870704703460020E0495A090CD0012A4D
:100900000CD0022A0CD0496BDA06D20E0123934098
:100910000B4200D0012070470968F5E7096AF3E748
:10092000496AF1E718B5002005242402009011203F
:10093000FFF7E0FF0099491C0091A14201D0002877
:10094000F5D01120FFF7D6FF002800D0012018BDF8
:10095000CA4A1168F8239943C000084310607047E1
:10096000C6490028086802D00122104301E040086F
:10097000400008607047C14A516BF8239943C0009A
:10098000084350637047BD490028486B02D00122DC
:10099000104301E04008400048637047B749042213
:1009A0000028486B01D0904300E010434863704733
:1009B000B2490A6A520852000A620A6A04239A4338
:1009C0000A620A6A02430A627047AC490A6A18233B
:1009D0009A430A620A6A02430A627047A7490028DA
:1009E000486A02D00122104301E0400840004862FA
:1009F000704710B5A14A53683D242404A3435360B3
:100A0000536808430343536010BD01229B491206FB
:100A10000028086801D0104300E090430860704748
:100A2000964AD16A090909010143D162704701223E
:100A30009249D2040028086801D0104300E0904396
:100A4000086070478D49C87170478C4A51688908A1
:100A50008900014351607047884840680C21084074
:100A60007047864A5168F0239943014351607047AB
:100A7000824A516807231B02994301435160704722
:100A80007E494A6801239B039A434A604A6883B2BD
:100A90001A434A600A6B8B159A430A630A6B000C6F
:100AA00002430A63704775490A6B40239A430A63FD
:100AB0000A6B02430A63704770490A6B10239A431A
:100AC0000A630A6B02430A6370476C490A6B920817
:100AD00092000A630A6B02430A637047F8B5674DD8
:100AE000044668680C21684E084003D0042801D0F1
:100AF000082801D0266012E069686868012289022E
:100B000012040F0F1040BF1C00281CD0E86A010718
:100B1000090F3046491C01F09DF978432060686850
:100B20005A4B0006000F1A5C20680146D1406160F4
:100B30006A685205520F9A5CD140A1602A6BD205B7
:100B400005D4534A09E0534847432760E7E76A68FA
:100B5000520401D44A0800E08A08E2602A6B530676
:100B60004D4A03D44C4B1233236100E022612B6BBE
:100B7000DB0601D4666100E060612B6B9B070FD040
:100B8000296B8907890F01290CD0286B8007800FFA
:100B9000022809D0286BC043800700D1A661F8BDA8
:100BA000A161F8BDA061F8BDA261F8BD33490A6A30
:100BB00002430A62704731490028374A086A01D067
:100BC000104300E090430862704701222B49120451
:100BD0000028086A01D0104300E090430862704783
:100BE000264A0029516901D0014300E08143516147
:100BF0007047224A0029916901D0014300E08143F6
:100C0000916170471D4A0029D16901D0014300E07C
:100C10008143D1617047194A0029916A01D001438B
:100C200000E0814391627047144A0029D16801D0E5
:100C3000014300E08143D1607047104A00291169E7
:100C400001D0014300E08143116170470B4A002944
:100C5000517A01D0014300E0814351727047074847
:100C6000416A01221206114341627047034A01465C
:100C7000926800200A4200D0012070470010024014
:100C80000CB8FFF8FFFFF6FE00127A008400002087
:100C9000809FD50000093D00008000000149887256
:100CA000EBE7000000100240244801688907890F23
:100CB000016000218160C16001614161816982152B
:100CC0001143816170471D4A1168890889000143F9
:100CD00011607047194A0029116801D0014300E0F2
:100CE000814311607047154A0029116801D0014302
:100CF00000E08143116070478A07130F10B50F227F
:100D00009A408C080D49A40061188C6894438C604B
:100D10008A68984002438A6010BD08498A69024384
:100D20008A617047054900208969C90500D50120FD
:100D3000704702498A6902438A6170470000014096
:100D4000F84910B5884202D10121C41430E00121D4
:100D50008907884206D101210846FFF76EFF00216E
:100D6000012008E0F049884208D101210220FFF764
:100D700064FF00210220FFF760FF10BDEB498842AD
:100D800006D101211020FFF758FF00211020F2E7C3
:100D9000E749884207D1841501212046FFF74DFF1E
:100DA00000212046E7E7E349884209D101210C04EC
:100DB0002046FFF739FF00212046FFF735FF10BD21
:100DC000DD49884202D101214C04F1E7DB49884228
:100DD000F5D101218C04EBE710B50288D14B984284
:100DE00006D00124A407A04202D0CF4CA04203D1D8
:100DF0007024A2434C882243CC4CA04203D0D04C58
:100E000022400C89224302804A68C2620A88028515
:100E1000984208D0C74A904205D0C74A904202D0B3
:100E2000C64A904201D1897A01860121818210BD92
:100E30000021C9434160002101800181418081720C
:100E40007047018582827047028870239A430A4363
:100E50000280704741627047C1627047406A7047C4
:100E6000008D704702220029018801D0114300E063
:100E700091430180704704220029018801D0114369
:100E800000E091430180704780220029018801D051
:100E9000114300E0914301807047028808239A4380
:100EA000028002880A43028070470288A44B1A40DD
:100EB000028002880A43028070470029018802D01C
:100EC0000122114301E0490849000180704710B533
:100ED0000A884B88CC881A438B8823431A430B8992
:100EE0001A434B8989891A430A434030828010BDD6
:100EF0000021018041808180C18001814181818107
:100F0000704740300029818803D00122D203114369
:100F100001E04904490C8180704730B5028C5208C9
:100F200052000284038C8288048B7025AC43A40891
:100F30000D88A40025430224A3438C891C434B88BD
:100F40002343784CA04208D07A4CA04205D07A4C7A
:100F5000A04202D0794CA0420DD10824A343CC89F1
:100F60001C4304239C438B882343754C22400C8AEA
:100F700014434A8A2243828005838968416303843B
:100F800030BD70B5028C10239A430284048C828891
:100F9000038B6C4D2B400D782D062D0C1D4320230B
:100FA0009C438B891B051E0C4B8826431B051B0C81
:100FB0005C4C3343A04215D18024A343CC89240543
:100FC000240C1C4340239C438B881B051B0C234390
:100FD0005D4C22400C8AA404240C14434A8A9204D7
:100FE000120C22438280058389688163038470BD6B
:100FF00030B5028C554B1A400284038C8288848B56
:101000007025AC43A4080D88A4002543504C234010
:101010000C7B2406240C1C438B781B061B0C2343DF
:10102000404CA04215D14B4C23408C7B2406240C11
:101030001C43494B1C400B791B061B0C2343474C9C
:1010400022400C8A2405240C14434A8A1205120CEF
:101050002243828085838968C163038430BD30B5B3
:10106000028C3F4B1A400284048C8388828B354D5E
:101070002A400D782D062D0C15433A4A14400A7B60
:101080001207120C22438C782407240C1443254A9F
:10109000904205D1344A13400A8A9205120C134338
:1010A0008380858389680164048430BD00210180C8
:1010B0004180818081608181C1810182418270474C
:1010C00030B5034618330124058C8C40A5430584B4
:1010D000002910D008290ED0091F0804400CC018A0
:1010E000016807231B039943016001681206120C73
:1010F0001143016030BD4808C0180168702399434E
:1011000001600168F4E74163704781637047C16320
:10111000704701647047028B70239A430A4302832D
:1011200070470000002C0140000400400010004007
:1011300000200040004001400044014000480140C0
:10114000FFFC0000FF8C0000FFF30000FFFE00002A
:10115000FFFD0000FFF70000FFFB0000FFCF0000D5
:10116000FFEF0000FFDF0000FFBF0000028BF64B27
:1011700009021A4011430183D2E7828B70239A43FC
:101180000A438283CCE7828BEF4B09021A4011435A
:101190008183C5E70029818802D00122114301E043
:1011A000490849008180BBE7028B08239A430A4320
:1011B0000283B5E7028BE54B09021A401143018314
:1011C000AEE7828B08239A430A438283A8E7828B87
:1011D000DE4B09021A4011438183A1E7028B0423ED
:1011E0009A430A4302839BE7028BD94B09021A40B8
:1011F0001143018394E7828B04239A430A43828339
:101200008EE7828BD24B09021A401143818387E714
:10121000028B80239A430A43028381E7028B5204A4
:10122000520C0902114301837AE7828B80239A438F
:101230000A43828374E7828B5204520C09021143E1
:1012400081836DE7028C02239A430A43028467E795
:10125000028C08239A430A43028461E7028C20230C
:101260009A430901114301845AE7028C80239A436F
:1012700009011143018453E7028CB64B09021A405D
:10128000114301844CE7028CB04B09021A40114310
:10129000018445E7028CB04B09031A4011430184D5
:1012A0003EE7028908239A43028102890A430281A8
:1012B00036E710B50123048C8B409C430484038CD7
:1012C0008A401343038410BD10B50423048C8B4063
:1012D0009C430484038C8A401343038410BD04227E
:1012E0000029818801D0114300E09143818017E7F4
:1012F000828B9A4B1A408283828B09020A43828333
:101300000EE7828B0C239A438283828B0A4382836B
:1013100006E7028B914B1A400283028B09020A43B3
:101320000283FDE6F0B5048C1026B4430484058BDB
:10133000048C8B4F1B0309013D402B4312021A43BF
:10134000A0239C430C43344302830484F0BD028BEE
:101350000C239A430283028B0A430283E0E670B5B2
:10136000048C640864000484058B048C1B01134303
:10137000F3260A22B54394432B430C4301210C432B
:101380000383048470BDF8B5044608884E888A88B3
:101390000B890D4600281DD0042824D00828208C55
:1013A0002AD0704908402084A08B278C31036C4ED2
:1013B000120230400243180310436B4AA0831740C7
:1013C0000F43012109030F432784E9882046FFF7D3
:1013D0008FFFF8BD31462046FFF7C1FFE988204660
:1013E000FFF7B5FFF8BD31462046FFF79BFFE988C0
:1013F0002046FFF78EFFF8BD5C4908402084A18B92
:10140000208C3702F3261B01B14313430B43584989
:10141000A3830840FF213843013108432084E98831
:101420002046FFF76EFFF8BD0021018041800122B8
:101430008280C180018173E6F8B50C464988002698
:1014400001250746002900D10226A288012A00D1E1
:101450000225208823890028384610D0FFF762FF34
:10146000E1883846FFF755FF23892A46314638463A
:10147000FFF775FFE1883846FFF769FFF8BDFFF712
:101480006EFFE1883846FFF762FF23892A4631461E
:101490003846FFF747FFE1883846FFF73AFFF8BDC7
:1014A000406B3DE6806B3BE6C06B39E6006C37E68F
:1014B000002A828901D00A4300E08A4382812FE614
:1014C00081822DE60246128A00200A4200D00120C5
:1014D00026E6C943018223E60246138A0020928948
:1014E0000B400A40002B02D0002A00D0012017E652
:1014F000C943018214E611434030018110E6002AFD
:10150000828901D00A4300E08A43828108E60822EA
:101510000029818801D0114300E091438180FFE5DB
:101520000189C908C9000181FAE5028970239A433B
:101530000A430281F4E510B50446FFF7F6FF20895F
:1015400007210843208110BDFF8F0000FFF7000036
:10155000FFFB0000FFFD0000FFDF0000FFF30000C5
:10156000FF0C0000FFEF0000FF5F0000FFFE000027
:10157000FFF5000070B516460D46044660290CD0F4
:1015800001223146FFF7EBFE29462046FFF7CDFF4B
:10159000208907210843208170BD01223146FFF7D1
:1015A000C1FEF1E710B504891B021343E4B20B43FB
:1015B0002343038110BD10B50446FFF7F3FF2089D4
:1015C000C108C900072001437020814301432181E4
:1015D00010BD10B50446FFF7E5FF208901218903FE
:1015E0000843208110BD828870239A4382808288BC
:1015F0000A43828094E50289D208D20002810289DE
:101600000A4302818CE5028980239A430281028980
:101610000A43028184E570B50689048B058CF608BF
:10162000F6000E430C4906810C40FF2102310C43A9
:10163000AA218D431901114329430483018470BDFC
:1016400080220029818801D0114300E091438180EC
:1016500066E54030018263E5FCFC0000F74910B507
:10166000884209D101218C032046FFF7DDFA0021D1
:101670002046FFF7D9FA10BDF1498842FBD101217C
:101680004C042046FFF7D9FA00212046FFF7D5FA8F
:1016900010BD70B50446006888B00D464008400093
:1016A00020606168032000038143A86808436060EC
:1016B0002168E448EA680140686810432A690A43DF
:1016C00010432060A068032109028843696901432F
:1016D000A1606846FFF702FAD848844201D1069813
:1016E00000E0029821680904296801D5490000E05A
:1016F00089001922504300F0ADFB0546642100F03B
:10170000A9FB06013009642148432168281A09040D
:1017100007D5C0006421323000F09CFB4007400F29
:1017200006E000016421323000F094FB0007000F56
:101730003043A08108B070BD4B21C9010160002178
:10174000416081600C22C16002614161704710B547
:1017500042680F231B029A4318C923430C68496847
:101760000C4323431343436010BD002101604160DB
:101770008160C16070470029016802D001221143D5
:1017800001E04908490001607047002A026801D061
:101790000A4300E08A43026070470122D203002915
:1017A000016801D0114300E09143016070470122BC
:1017B000D2020029816801D0114300E09143816089
:1017C00070470122D2040029416801D0114300E092
:1017D000914341607047012292040029416801D081
:1017E000114300E0914341607047002A426801D0F4
:1017F0000A4300E08A43426070470122D203002975
:10180000416801D0114300E09143416070470122DB
:10181000D2050029416801D0114300E091434160A5
:1018200070474269120E1206426142690A434261E0
:101830007047028A120A12020282028A0A43028254
:10184000704702220029016801D0114300E0914352
:1018500001607047826803231B059A438260826897
:101860000A4382607047012212050029416801D0B5
:10187000114300E0914341607047426803235B05D8
:101880009A43426042680A4342607047C16901223C
:10189000D2039143C1617047C905C90D01857047E5
:1018A000808CC005C00D704742681202120A426067
:1018B000426809060A434260704701225203002928
:1018C000016801D0114300E0914301607047026854
:1018D0000123DB029A43026002680A4302607047F8
:1018E000426810239A43426042680A43426070474C
:1018F000426820239A43426042680A43426070472C
:10190000012292030029416801D0114300E0914374
:101910004160704708220029816801D0114300E02E
:10192000914381607047028AD2B20282028A090220
:101930000A430282704720220029816801D01143A6
:1019400000E091438160704710220029816801D036
:10195000114300E0914381607047826807235B0474
:101960009A438260826849040A43826070474269F0
:101970001202120A4261426909060A434261704733
:10198000826804239A43826082680A4382607047B7
:1019900002220029816801D0114300E09143816057
:1019A0007047012292030029816801D0114300E0B1
:1019B00091438160704782680123DB039A43826010
:1019C00082680A438260704702681F235B059A435E
:1019D0000260026849050A430260704702681F23DB
:1019E0001B049A430260026809040A4302607047BC
:1019F000002A826801D00A4300E08A43826070476F
:101A0000826801235B039A43826082680A43826092
:101A1000704710B50B041C0E01238B40022C02D022
:101A2000032C02D002E0001D00E008300168002A0B
:101A300001D0194300E09943016010BD0038014016
:101A400000440040F3E9FFFF002A028B01D00A4363
:101A500000E08A4302837047826801231B039A4394
:101A6000826082680A43826070470246D269002021
:101A70000A4200D0012070470162704730B50A0465
:101A8000130E0122144600258C40012B0ED0022B90
:101A90000ED08368090C2340C0698A401040002B97
:101AA00002D0002800D00125284630BD0368F1E7A8
:101AB0004368EFE70A0C0121914001627047000082
:101AC00010B501210C072046FFF7B7F8002120468A
:101AD000FFF7B3F810BD30498A150028086801D017
:101AE000104300E09043086070472B4A1168E023E0
:101AF0009943014311607047274910220028086864
:101B000001D0104300E0904308607047224A00294A
:101B1000516801D0014300E08143516070471F4983
:101B20000A6904239A430A61012801D020BF704743
:101B300030BF7047184B1A689208920002431A602F
:101B400016480369042213430361012904D020BF0E
:101B5000016991430161704730BFF9E70E4802689F
:101B600004210A430260026802231A4302600B4800
:101B700002690A43026130BF7047074A0146526852
:101B800000200A4200D00120704703490A68800003
:101B900002430A60704700000070004000ED00E062
:101BA0000168454A11400160002101604160816087
:101BB000C1604249414A0839904202D148680F2227
:101BC00005E03E4A1432904204D14868F0221043A6
:101BD00048607047394A2832904203D148680F2242
:101BE0001202F4E7354A3C32904203D148680F2292
:101BF0001203ECE7314A50329042EAD148680F2292
:101C00001204E4E730B503682D4A0C6A13408A6871
:101C10004D6922430C692C4322438C692243CC69D1
:101C200022434C6A22438C6A22431A430260CA68E8
:101C300042600A6882604968C16030BD002101606D
:101C400041608160C160016141618161C161016286
:101C50004162816270470029016802D0012211436C
:101C600001E0154A114001607047416070474068CB
:101C700080B27047002A026801D00A4300E08A431C
:101C80000260704701460D4A0020083A12680A4275
:101C900000D0012070470949083948607047014663
:101CA000064A0020083A12680A4200D00120704714
:101CB0000249083948607047FEFF000008000240F2
:101CC0000F80FFFF10B54E480168012211430160EB
:101CD00041684C4A1140416001684B4A1140016023
:101CE0000168012292049143016041683F2212047D
:101CF00091434160C16A09090901C162016BFF2278
:101D0000543291430163416B49084900416300210A
:101D1000816000F02EF810BD70B5394D69680C2057
:101D200001403A483A4C03D0042901D0082901D097
:101D3000206014E06A686968012392021B04160F90
:101D40001940B61C002907D0E96A0907090F491C88
:101D500000F080F87043EBE72E4846432660686841
:101D60002B490006000F091D085C2168C140216055
:101D700070BD1CB500212248019100910268012329
:101D80001B041A4302605B000522120204681C4017
:101D90000094019C641C0194009C002C02D1019CC5
:101DA0009442F3D10268920328D5012100911A4A86
:101DB00011211160416841604168416041683F22E2
:101DC00012049143416041681122120411434160A1
:101DD0000168012212061143016001688901FCD5E6
:101DE00041688908890041604168022211434160CD
:101DF00041680907890F0229FAD11CBD00911CBD59
:101E0000001002400CB8FFF8FFFFF6FE00127A0047
:101E10009400002000093D00002002400748804750
:101E200007480047FEE7FEE7FEE7FEE7FEE7FEE7BE
:101E300004480549054A064B70470000C51C0008C8
:101E4000C100000808010020080700200803002046
:101E500008030020002203098B422CD3030A8B4283
:101E600011D300239C464EE003460B433CD4002292
:101E700043088B4231D303098B421CD3030A8B42A4
:101E800001D394463FE0C3098B4201D3CB01C01A72
:101E9000524183098B4201D38B01C01A524143093D
:101EA0008B4201D34B01C01A524103098B4201D32B
:101EB0000B01C01A5241C3088B4201D3CB00C01A98
:101EC000524183088B4201D38B00C01A5241430810
:101ED0008B4201D34B00C01A5241411A00D2014635
:101EE0005241104670475DE0CA0F00D049420310CE
:101EF00000D34042534000229C4603098B422DD31D
:101F0000030A8B4212D3FC22890112BA030A8B42C4
:101F10000CD3890192118B4208D3890192118B4213
:101F200004D389013AD0921100E08909C3098B4298
:101F300001D3CB01C01A524183098B4201D38B01DB
:101F4000C01A524143098B4201D34B01C01A52417E
:101F500003098B4201D30B01C01A5241C3088B42C3
:101F600001D3CB00C01A524183088B4201D38B00AE
:101F7000C01A5241D9D243088B4201D34B00C01A38
:101F80005241411A00D20146634652415B1010464D
:101F900001D34042002B00D54942704763465B1095
:101FA00000D3404201B50020C046C04602BD704784
:101FB00070477047754600F025F8AE460500694643
:101FC0005346C008C000854618B020B5FFF730FF63
:101FD00060BC00274908B6460026C0C5C0C5C0C5BC
:101FE000C0C5C0C5C0C5C0C5C0C5403D49008D46BF
:101FF000704710B50446C046C0462046FEF7ABF811
:1020000010BD000000487047A800002001491820BA
:10201000ABBEFEE726000200704700000100010091
:1020200000000000050000020001000000000200A6
:1020300000000800000008005820000800000020F0
:10204000A80000000401000800210008A8000020EA
:10205000600600002001000800000000002E2D0096
:10206000002D2E2E2E2D2E2D2E2D2E2E002E00004C
:10207000002E2E2D2E2D2D2E002E2E2E2E2E2E000D
:10208000002E2D2D2D2D2E2D002E2D2E2E2D2D0002
:10209000002D2E00002D2D2D002E2D2D2E2D2D2E20
:1020A0002D2E2D2E002E2E2E002D0000002E2E2D3A
:1020B000002E2E2E2D2E2D2D002D2E2E2D2D2E2DA3
:1020C0002D2D2D2E2E736F730000000000000000D8
:1020D0000000004800080048000800480000000018
:1020E000010203040102030406070809006CDC0274
:1020F00000000000000000000102030406070809B8
:04000005080000C12E
:00000001FF
