:020000040800F2
:1000000020040020890200087D0200087F02000809
:1000100000000000000000000000000000000000E0
:100020000000000000000000000000008302000843
:1000300000000000000000008502000887020008A0
:100040009B0200089B0200089B0200089B0200081C
:100050009B0200089B0200089B0200089B0200080C
:100060009B0200089B0200089B0200089B020008FC
:100070009B0200089B0200089B0200089B020008EC
:100080009B0200089B020008000000009B02000881
:100090009B0200089B0200089B0200089B020008CC
:1000A0009B0200089B0200089B0200089B020008BC
:1000B0009B020008000000009B02000800000000F6
:1000C0000348854600F012FA004800472B0200085A
:1000D0002004002008B50090002801DD401EFAE74A
:1000E00008BD10B58AB0044628225A49684600F077
:1000F000EBF9A0006946085857498861641C2046FE
:100100000AB010BD10B58AB00446282251492839DA
:10011000684600F0D9F9A000694608584E49886140
:10012000641E20460AB010BD70B505460C462878FE
:10013000002804D02068FFF7E5FF206003E0206876
:10014000FFF7CFFF20602068002803DC0020287024
:10015000206006E02068092803DD012028700920BE
:10016000206070BD70B504460D460920C006008AA7
:10017000C007C00F00281CD019214901374800686A
:1001800000F08CF90646FFF7A5FF0920C006008A9B
:10019000C007C00F00280ED0207800280BD1012006
:1001A00020702878002801D1012000E0002028706C
:1001B00001E00020207070BD2748C0682849084031
:1001C0002549C8607047244880682549C9430843C9
:1001D00021498860704720488088224908401E498C
:1001E000888070471C4800681F4908431A49086006
:1001F0000920C0060068800880000921C90608603F
:1002000070471A4840690521490408431749486165
:10021000704700B5FFF7F5FFFFF7E4FFFFF7DBFFDF
:10022000FFF7D1FFFFF7C8FF00BDFFF7F2FF0FE0B8
:100230000F491048FFF796FF0F490D48FFF774FF6D
:1002400050210648006800F029F90446FFF742FFF4
:10025000EEE70000580500080008004808000020EC
:100260000300C0FF01F8FFFF5455150000100240C5
:10027000000000200100002004000020704700BFA3
:10028000FEE77047704770470448804704480047BE
:10029000FEE7FEE7FEE7FEE7FEE7FEE77303000882
:1002A000C10000080CB50020019000907348006860
:1002B0000121090408437149086000BF6F480068C4
:1002C00001214904084000900198401C01900098C9
:1002D000002804D10521090201988842EED167481F
:1002E0000068012149040840002802D00120009044
:1002F00001E0002000900098012839D111206049C8
:1003000008605E4840685D4948600846406848604B
:10031000084640683F210904884358494860084618
:1003200040681121090408435449486008460068A0
:100330000121090608435149086000BF4F48006881
:100340000121490608400028F8D04C484068800840
:1003500080004A49486008464068022108434749EE
:10036000486000BF454840680C2108400828F9D182
:100370000CBD10B541480068012108433F490860A1
:10038000084640683F4908403C49486008460068C4
:100390003D49084039490860084600680121890440
:1003A000884336490860084640683F21090488436D
:1003B000324948600846C06A00090001C862084620
:1003C000006BFF21543188432C4908630846406B79
:1003D00040084000486300208860FFF763FF10BDBD
:1003E000F8B50025002400260027244840680C2189
:1003F00008400546002D04D0042D06D0082D2AD132
:1004000007E022482249086029E020482049086086
:1004100025E01A4840680F2189040840044617481F
:1004200040680121090408400646A00C841C002EE7
:1004300004D118486043164908600BE00F48C06AB1
:100440000007000F471C3946104800F027F86043AA
:100450000F49086003E00D480D49086000BF00BF68
:1004600006484068F021084000090B490D5C084827
:100470000068E84006490860F8BD0000001002402E
:10048000002002400CB8FFF8FFFFF6FE00127A00D1
:100490000800002000093D000C00002030B50B468C
:1004A000014600202022012409E00D46D5409D424E
:1004B00005D31D469540491B2546954040191546D4
:1004C000521E002DF1DC30BD03460B439B0703D0C9
:1004D00009E008C9121F08C0042AFAD203E00B7809
:1004E0000370401C491C521EF9D27047064C01256E
:1004F000064E05E0E36807CC2B430C3C98471034CC
:10050000B442F7D3FFF7E0FD80050008A00500081E
:1005100002E008C8121F08C1002AFAD170477047CC
:10052000002001E001C1121F002AFBD1704700002A
:10053000000002000000040000000800000010009D
:1005400000002000000040000000800000000001CA
:10055000000000020000000402000000040000008F
:100560000800000010000000200000004000000013
:1005700080000000000100000002000000040000F4
:10058000A0050008000000201C0000001005000865
:10059000BC0500081C000020040400002005000821
:1005A0000000000000000000006CDC020000000001
:0C05B00000000000010203040607080917
:04000005080000C12E
:00000001FF
