:020000040800F2
:1000000030040020D904000811040008130400087B
:1000100000000000000000000000000000000000E0
:1000200000000000000000000000000017040008AD
:100030000000000000000000190400081B04000874
:10004000EB040008EB040008EB040008EB040008D4
:10005000EB040008EB040008EB040008EB040008C4
:10006000EB040008EB040008EB040008EB040008B4
:10007000EB040008EB040008EB040008EB040008A4
:10008000EB040008EB04000800000000EB0400088B
:10009000EB040008EB040008EB040008EB04000884
:1000A000EB040008EB040008EB04000877040008E8
:1000B000EB04000800000000EB0400080000000052
:1000C0000348854600F028FB00480047E30000088D
:1000D0003004002008B50090002801DD401EFAE73A
:1000E00008BD0024012535484069E9040843334927
:1000F0004861334800680521090408433049086015
:10010000084680880321090288432D4988800846D3
:1001100080680F2109040843294988600846C0689F
:100120000F21090488432649C86000F097F800F0C1
:1001300015F924A000F0DCF82DA000F0D9F834A0C7
:1001400000F0D6F838E0012040021D4988613D49A1
:100150000968C8080A2100F0C9FA0646FFF7BAFF85
:10016000012040061649886136490968C8080A21F5
:1001700000F0BCFA0646FFF7ADFF1B2001218140CD
:10018000314A116000BF00F0C4F80446AC420BD005
:10019000002C09D025462DA000F0AAF8204600F03A
:1001A0009CF81AA000F0A4F81B2001218140264AE7
:1001B000803A116000BF00BFC5E700000010024098
:1001C00000080048546869732069732053544D3304
:1001D000324630206D6963726F636F6E74726F6C3C
:1001E0006C6572206C6573736F6E20322E0A00008E
:1001F000507265737320444946464552454E54201B
:10020000636861726163746572732E0A0A0000008C
:100210005768792069732074686520677265656E18
:10022000204C4544206E6F7420626C696E6B696E61
:100230006720636F6E74696E756F75736C793F3F7D
:100240000A0A00000C00002080E100E0596F7520D0
:10025000707265737365643A2000000010B56248DF
:1002600040690121490408435F4948610920C006EB
:1002700000680521C90408430921C9060860084629
:10028000406AFF21113108430921C90648625648D6
:10029000806901218903084353498861FF20A13007
:1002A000524988810D200860002048608860084617
:1002B0000068202108434D4908601B20012181402E
:1002C0004B4A116000BF002100F057F81B200121AC
:1002D0008140484A116000BF10BD00BF4349C96951
:1002E000802211400029F9D040492031088170470F
:1002F00000B5034609E018780A2802D10D20FFF75F
:10030000ECFF18785B1CFFF7E8FF18780028F2D1A3
:1003100000BD10B53848394900228A56805C002853
:1003200010D03549354A0023D356C85C0021324AE3
:10033000324B5C56115519460978491C49B21A4688
:10034000117010BD0020FCE710B5044603E0FFF774
:10035000E0FF2070641C0D28F9D110BD0EB528A156
:1003600003C90291019028A00068009001A8FFF73E
:10037000BFFF6846FFF7BCFF0EBD10B5002819DAB5
:10038000224A03071B0F083B9B089B00D258830798
:10039000DC0EFF23A3409A438B071B0E8407E40E59
:1003A000A3401A43194B0407240F083CA408A400D7
:1003B0001A5118E00E4A03231B02D21883089B002F
:1003C000D2588307DC0EFF23A3409A438B071B0EF2
:1003D0008407E40EA3401A43054B032424021B198F
:1003E0008408A4001A5110BD0010024000380140DA
:1003F00000E100E080E200E020000020000000209A
:100400001B5B324A000000001B5B66001CED00E035
:10041000704700BFFEE7704770472A4801680068D0
:10042000401C284A1060002903D1012040022649BF
:100430008861244800680F2804D101204002224925
:10044000203108811F4800681E2803D10120400286
:100450001D4988611B4800682D2804D101204002F5
:1004600019492031088117480068C82802D10020A6
:100470001449086070471548C069202108400028C9
:100480001ED01248203080881149124A0023D356CA
:10049000C85400201056401C085C00280AD01046A2
:1004A0000078401C40B211460870FF200130064918
:1004B000888205E007480078401C40B20549087072
:1004C0007047000008000020000800480038014084
:1004D0002000002004000020044880470448004712
:1004E000FEE7FEE7FEE7FEE7FEE7FEE7C3050008DE
:1004F000C10000080CB5002001900090734800680E
:100500000121090408437149086000BF6F48006871
:1005100001214904084000900198401C0190009876
:10052000002804D10521090201988842EED16748CC
:100530000068012149040840002802D001200090F1
:1005400001E0002000900098012839D11120604975
:1005500008605E4840685D494860084640684860F9
:10056000084640683F2109048843584948600846C6
:10057000406811210904084354494860084600684E
:100580000121090608435149086000BF4F4800682F
:100590000121490608400028F8D04C4840688008EE
:1005A00080004A494860084640680221084347499C
:1005B000486000BF454840680C2108400828F9D130
:1005C0000CBD10B541480068012108433F4908604F
:1005D000084640683F4908403C4948600846006872
:1005E0003D490840394908600846006801218904EE
:1005F000884336490860084640683F21090488431B
:10060000324948600846C06A00090001C8620846CD
:10061000006BFF21543188432C4908630846406B26
:1006200040084000486300208860FFF763FF10BD6A
:10063000F8B50025002400260027244840680C2136
:1006400008400546002D04D0042D06D0082D2AD1DF
:1006500007E022482249086029E020482049086034
:1006600025E01A4840680F218904084004461748CD
:1006700040680121090408400646A00C841C002E95
:1006800004D118486043164908600BE00F48C06A5F
:100690000007000F471C3946104800F027F8604358
:1006A0000F49086003E00D480D49086000BF00BF16
:1006B00006484068F021084000090B490D5C0848D5
:1006C0000068E84006490860F8BD000000100240DC
:1006D000002002400CB8FFF8FFFFF6FE00127A007F
:1006E0000C00002000093D001000002030B50B4632
:1006F000014600202022012409E00D46D5409D42FC
:1007000005D31D469540491B254695404019154681
:10071000521E002DF1DC30BD064C0125064E05E0D1
:10072000E36807CC2B430C3C98471034B442F7D312
:10073000FFF7CAFC5C0700087C07000802E008C855
:10074000121F08C1002AFAD170477047002001E04B
:1007500001C1121F002AFBD1704700007C0700086E
:1007600000000020200000003C0700089C07000853
:1007700020000020100400004C07000800000000CA
:100780000000000000000000006CDC02000000001F
:0C07900000000000010203040607080935
:04000005080000C12E
:00000001FF
