:020000040800F2
:100000001804002085020008790200087B0200081D
:1000100000000000000000000000000000000000E0
:100020000000000000000000000000007F02000847
:1000300000000000000000008102000883020008A8
:10004000970200089702000897020008970200082C
:10005000970200089702000897020008970200081C
:10006000970200089702000897020008970200080C
:1000700097020008970200089702000897020008FC
:10008000970200089702000800000000970200088D
:1000900097020008970200089702000897020008DC
:1000A00097020008970200089702000897020008CC
:1000B00097020008000000009702000800000000FE
:1000C0000348854600F0FEF900480047E3000008B9
:1000D0001804002008B50090002801DD401EFAE752
:1000E00008BD5B4840690121C9040843584948617B
:1000F000584800685849084356490860084600684F
:100100005649084353490860084680883E21884381
:1001100050498880084680881F21890188434D49BD
:100120008880084680684E4908434A4988600846E6
:1001300080684C490843474988600846C068484978
:10014000C94308404349C8600846C0684549C94397
:1001500008404049C8603E484069890108433C491D
:10016000486174E00920C006008AC007C00F00285B
:1001700015D03D480078012148403B4908703B4874
:100180000078002805D0394800780A21081A374934
:100190000870374800781421081A35490870324829
:1001A0000078002821D02B48808A30490A78022123
:1001B00091404840274988822C480078401C2B49B0
:1001C00008702B480078401C2949087008460078C0
:1001D00014282DD101200870244908701D48808AF8
:1001E000022148401B49888222E01A48808A1F4920
:1001F0000A7801218902D1404840164988821B486B
:100200000078401C1949087019480078401C1849AA
:1002100008700846007814280AD101200870134994
:1002200008700C48808A0121890248400949888267
:100230000E4800780A2802D100200C49087050218D
:100240000C48006800F028F90446FFF743FF89E7EF
:10025000001002400008004854050000005015003E
:10026000FC0F000000F03F00010000200200002011
:100270000000002004000020704700BFFEE7704728
:10028000704770470448804704480047FEE7FEE790
:10029000FEE7FEE7FEE7FEE76F030008C100000887
:1002A0000CB50020019000907348006801210904FA
:1002B00008437149086000BF6F4800680121490484
:1002C000084000900198401C01900098002804D13B
:1002D0000521090201988842EED167480068012192
:1002E00049040840002802D00120009001E00020CD
:1002F00000900098012839D11120604908605E48BB
:1003000040685D4948600846406848600846406863
:100310003F21090488435849486008464068112134
:100320000904084354494860084600680121090649
:1003300008435149086000BF4F4800680121490641
:1003400008400028F8D04C484068800880004A499E
:10035000486008464068022108434749486000BF9A
:10036000454840680C2108400828F9D10CBD10B55B
:1003700041480068012108433F4908600846406839
:100380003F4908403C494860084600683D490840EC
:1003900039490860084600680121890488433649C4
:1003A0000860084640683F21090488433249486094
:1003B0000846C06A00090001C8620846006BFF21B8
:1003C000543188432C4908630846406B400840007C
:1003D000486300208860FFF763FF10BDF8B5002573
:1003E000002400260027244840680C2108400546C8
:1003F000002D04D0042D06D0082D2AD107E0224874
:100400002249086029E020482049086025E01A4870
:1004100040680F21890408400446174840680121BC
:10042000090408400646A00C841C002E04D118487C
:100430006043164908600BE00F48C06A0007000FD0
:10044000471C3946104800F027F860430F49086000
:1004500003E00D480D49086000BF00BF0648406832
:10046000F021084000090B490D5C08480068E8408D
:1004700006490860F8BD000000100240002002405C
:100480000CB8FFF8FFFFF6FE00127A00040000200F
:1004900000093D000800002030B50B460146002051
:1004A0002022012409E00D46D5409D4205D31D467A
:1004B0009540491B2546954040191546521E002D72
:1004C000F1DC30BD064C0125064E05E0E36807CCA3
:1004D0002B430C3C98471034B442F7D3FFF7F4FD9C
:1004E000080500082805000802E008C8121F08C116
:1004F000002AFAD170477047002001E001C1121FA5
:10050000002AFBD1704700002805000800000020E9
:1005100018000000E804000840050008180000204A
:1005200000040000F804000800000000006CDC0279
:100530000000000000000000010203040607080993
:04000005080000C12E
:00000001FF
