:020000040800F2
:1000000028040020490B0008A1020008A3020008F0
:1000100000000000000000000000000000000000E0
:10002000000000000000000000000000A502000821
:100030000000000000000000A7020008A90200085C
:100040005B0B00085B0B00085B0B00085B0B0008F8
:100050005B0B00085B0B00085B0B00085B0B0008E8
:100060005B0B00085B0B00085B0B00085B0B0008D8
:100070005B0B00085B0B00085B0B00085B0B0008C8
:10008000E30200085B0B0008000000005B0B0008A7
:100090005B0B00085B0B00085B0B00085B0B0008A8
:1000A0005B0B00085B0B00085B0B00085B0B000898
:1000B0005B0B0008000000005B0B00080000000064
:1000C0000348854600F010FE004800476102000822
:1000D0002804002008B50090002801DD401EFAE742
:1000E00008BD0A46010210B511436A4800F0ABFC96
:1000F0006A486949006800F0E1FDFFF7EBFF10BDB9
:1001000038B519256D01654C002813D0012810D190
:100110000F200090C1B20A20FFF7E3FF29462068B4
:1001200000F0CCFDFFF7D6FF0098401E009000289D
:10013000F0DC38BD00200090C1B20A20FFF7D1FFEB
:100140002946206800F0BAFDFFF7C4FF0098401C64
:1001500000900F28F0DB38BD70B505460120491E20
:100160008840C4B20020FFF7CBFF21462846FFF7A6
:10017000B8FF0120FFF7C4FF70BD10B501240021B6
:100180002046FFF7AEFF641CE4B2082CF7D910BD7F
:1001900010B500210920FFF7A4FF00210A20FFF776
:1001A000A0FF07210B20FFF79CFF01210C20FFF788
:1001B00098FF00210F20FFF794FF10BD30B50121FB
:1001C00087B0480400F0E2FA05A800F0EEF8022437
:1001D00068460476B02005900321684641760121E7
:1001E000C1760925ED0600220421284600F011F908
:1001F00000220521284600F00CF90022072128469C
:1002000000F007F905A9284600F097F80121080336
:1002100000F0C5FA684600F038FB610368460180CB
:10022000FF21053141800F2109028180C480002116
:100230000181418138228281C181164C6946204664
:1002400000F031FB0121204600F0A8FB01212046EF
:1002500000F0E5FB0121204600F0EAFB07B030BDCD
:10026000FFF7ACFFFFF794FFFFF787FF0124052599
:1002700021462846FFF770FF641CE4B2082CF7D330
:1002800005E021462846FFF767FF641EE4B2012C13
:10029000ECD9F6E70030014080380100140000205E
:1002A0007047FEE77047704710B50E48012201689D
:1002B0005202491C0C4B016001290ED00A4C20341B
:1002C0000F290CD01E2908D02D2908D00A46FF3A44
:1002D0002D3A01D10021016010BD9A6110BD22812B
:1002E00010BD70470000002000080048092110B52B
:1002F000C906884202D101214C0404E04D498842DC
:1003000009D101210402204600F05BFA00212046B9
:1003100000F057FA10BD4849884202D10121040279
:10032000F1E74649884202D101210C05EBE7444937
:100330008842EFD101218C05E5E7F0B500220124C8
:1003400023460D6893401D409D422AD10D79012D11
:1003500001D0022D12D1876855000326AE40B74365
:1003600087604E79AE4085682E43866085889D43C0
:10037000858085888B7993401D438580066855006C
:100380000323AB409E4306600E790768AE403E43B0
:100390000660C6689E43C660CB79AB40C5682B43F8
:1003A000C360521C102ACBD3F0BD26490160002146
:1003B0000171022242718171C1717047012208B539
:1003C00012040A430092C261C1610099C161C1690E
:1003D000C069009008BD0246128A00200A4200D07F
:1003E00001207047008A70470246928A00200A4224
:1003F00000D001207047808A704781617047018575
:100400007047002A01D08161704701857047818261
:1004100070474B07DB0E9A40C90810B589000818D1
:10042000016A0F249C40A1430162016A11430162E9
:1004300010BD00000004004800080048000C0048FF
:1004400000140048FFFF0000F74801680122114333
:1004500001604168F54A114041600168F44A114069
:1004600001600168012292049143016041683F22CA
:10047000120491434160C16A09090901C162016B1B
:10048000FF22543291430163416B490849004163A3
:10049000002181607047E44900228A7088707047AB
:1004A00003460020E0495A090CD0012A0CD0022A48
:1004B0000CD0496BDA06D20E012393400B4200D0D8
:1004C000012070470968F5E7096AF3E7496AF1E72F
:1004D00018B500200524240200901120FFF7E0FF4A
:1004E0000099491C0091A14201D00028F5D01120AB
:1004F000FFF7D6FF002800D0012018BDCA4A1168B6
:10050000F8239943C000084310607047C64900288B
:10051000086802D00122104301E040084000086052
:100520007047C14A516BF8239943C0000843506398
:100530007047BD490028486B02D00122104301E0FA
:100540004008400048637047B74904220028486BC0
:1005500001D0904300E0104348637047B2490A6AF3
:10056000520852000A620A6A04239A430A620A6A1B
:1005700002430A627047AC490A6A18239A430A6226
:100580000A6A02430A627047A7490028486A02D0F3
:100590000122104301E0400840004862704710B556
:1005A000A14A53683D242404A3435360536808437D
:1005B0000343536010BD01229B49120600280868BE
:1005C00001D0104300E0904308607047964AD16A1A
:1005D000090909010143D162704701229249D204FD
:1005E0000028086801D0104300E09043086070477D
:1005F0008D49C87170478C4A516889088900014348
:1006000051607047884840680C2108407047864A0E
:100610005168F0239943014351607047824A516801
:1006200007231B0299430143516070477E494A6882
:1006300001239B039A434A604A6883B21A434A6083
:100640000A6B8B159A430A630A6B000C02430A6318
:10065000704775490A6B40239A430A630A6B024349
:100660000A63704770490A6B10239A430A630A6B46
:1006700002430A6370476C490A6B920892000A634E
:100680000A6B02430A637047F8B5674D0446686811
:100690000C21684E084003D0042801D0082801D05E
:1006A000266012E0696868680122890212040F0F4F
:1006B0001040BF1C00281CD0E86A0107090F304613
:1006C000491C00F0FBFA7843206068685A4B00062A
:1006D000000F1A5C20680146D14061606A685205CB
:1006E000520F9A5CD140A1602A6BD20505D4534ABF
:1006F00009E0534847432760E7E76A68520401D49A
:100700004A0800E08A08E2602A6B53064D4A03D487
:100710004C4B1233236100E022612B6BDB0601D4CA
:10072000666100E060612B6B9B070FD0296B890726
:10073000890F01290CD0286B8007800F022809D06F
:10074000286BC043800700D1A661F8BDA161F8BD48
:10075000A061F8BDA261F8BD33490A6A02430A628A
:10076000704731490028374A086A01D0104300E039
:1007700090430862704701222B4912040028086A3E
:1007800001D0104300E0904308627047264A0029D8
:10079000516901D0014300E0814351617047224A11
:1007A0000029916901D0014300E0814391617047C4
:1007B0001D4A0029D16901D0014300E08143D16184
:1007C0007047194A0029916A01D0014300E0814332
:1007D00091627047144A0029D16801D0014300E0BA
:1007E0008143D1607047104A0029116901D001434B
:1007F00000E08143116170470B4A0029517A01D012
:10080000014300E08143517270470748416A012269
:100810001206114341627047034A01469268002064
:100820000A4200D001207047001002400CB8FFF8C7
:10083000FFFFF6FE00127A0004000020809FD50022
:1008400000093D000080000001498872EBE70000CC
:1008500000100240B24910B5884209D18414012128
:100860002046FFF7B7FF00212046FFF7B3FF10BD7A
:10087000AC498842FBD1041401212046FFF7B3FFA5
:1008800000212046FFF7AFFF10BD002101800722A5
:10089000418012028280C180018141818181C181B8
:1008A00007210182704730B50388C12292011340AD
:1008B0000A88CC890D892243CC882C4322434C8959
:1008C00022438C8922431A4302808288964B1A4025
:1008D0008B88134383800A8A028202880423498812
:1008E0009A4311430180818B904A1140818330BD2E
:1008F0000021018041808180C1800222826081814B
:100900007047F0B505460C4602200021AA8B87B03F
:100910000126854BBF3B1A40AA832884AF8BA2686F
:10092000022A24D0A088002800D002266846FFF7BB
:10093000ABFEE1880098CA1FFF3AFA3A29D071014C
:1009400000F0BCF90A214843A16800F0B7F9401D46
:1009500080B20A2100F0B2F9C107C90F401AC003E2
:10096000000C0902821EFE2A01D302200021E28827
:10097000084302432A8420886188A2890843A18809
:100980001143084301213843C9020843A88307B033
:10099000F0BD000A0A225043A168D6E74022002990
:1009A000018801D0114300E091430180704710227B
:1009B0000029818801D0114300E091438180704774
:1009C0000029818B03D001229202114301E0584A91
:1009D0001140818370478288534B1A400A438280BA
:1009E00070478288534B1A40828082880A438280F3
:1009F0007047012292039142018801D1114301E025
:100A00004D4A1140018070474C4A9142018803D001
:100A1000FF220132114300E011400180704704229F
:100A20000029818801D0114300E091438180704703
:100A300008220029818801D0114300E09143818080
:100A400070470173704781817047007B70478089D0
:100A500070470288354B1A40028002880A430280A0
:100A600070470029018803D001225203114301E09D
:100A7000334A11400180704701880122120311435B
:100A800001807047012901D0008B7047808A704730
:100A9000008A7047002A828801D00A4300E08A4316
:100AA000828070478288274B1A40828082880A435E
:100AB00082807047090901238B40002A828899B2FD
:100AC00001D00A4300E08A438280704700890321F5
:100AD000C902084070470089032149020840704755
:100AE0000246128900200A4200D001207047C94303
:100AF0000181704730B50D0701222D0F14460346C2
:100B0000AC40002009098A4091B29A88A4B20A40F8
:100B10001989214202D0002A00D0012030BD0000F6
:100B20000030014000380040FFF00000FFF70000F7
:100B3000FFFB0000FFEF0000FFBF0000FFFE000012
:100B4000FFDF0000FF9F0000044880470448004783
:100B5000FEE7FEE7FEE7FEE7FEE7FEE7650B0008BF
:100B6000C100000810B54E48016801221143016020
:100B700041684C4A1140416001684B4A1140016094
:100B80000168012292049143016041683F221204EE
:100B900091434160C16A09090901C162016BFF22E9
:100BA000543291430163416B49084900416300217C
:100BB000816000F02EF810BD70B5394D69680C20C9
:100BC00001403A483A4C03D0042901D0082901D009
:100BD000206014E06A686968012392021B04160F02
:100BE0001940B61C002907D0E96A0907090F491CFA
:100BF00000F064F87043EBE72E48464326606868CF
:100C00002B490006000F091D085C2168C1402160C6
:100C100070BD1CB50021224801910091026801239A
:100C20001B041A4302605B000522120204681C4088
:100C30000094019C641C0194009C002C02D1019C36
:100C40009442F3D10268920328D5012100911A4AF7
:100C500011211160416841604168416041683F2253
:100C60001204914341604168112212041143416012
:100C70000168012212061143016001688901FCD557
:100C8000416889088900416041680222114341603E
:100C900041680907890F0229FAD11CBD00911CBDCA
:100CA000001002400CB8FFF8FFFFF6FE00127A00B9
:100CB0001400002000093D000020024030B50B4622
:100CC000014600202022012409E00D46D5409D4226
:100CD00005D31D469540491B2546954040191546AC
:100CE000521E002DF1DC30BD064C0125064E05E0FC
:100CF000E36807CC2B430C3C98471034B442F7D33D
:100D0000FFF7E2F92C0D00084C0D000802E008C8BE
:100D1000121F08C1002AFAD170477047002001E075
:100D200001C1121F002AFBD1704700004C0D0008C2
:100D300000000020280000000C0D0008740D0008C1
:100D400028000020000400001C0D00080000000026
:100D50000000000001020304010203040607080961
:100D6000006CDC020000000000000000010203042F
:040D70000607080961
:04000005080000C12E
:00000001FF
