:020000040800F2
:100000001804002011020008050200080702000879
:1000100000000000000000000000000000000000E0
:100020000000000000000000000000000B020008BB
:1000300000000000000000000D0200080F02000890
:1000400023020008230200082302000823020008FC
:1000500023020008230200082302000823020008EC
:1000600023020008230200082302000823020008DC
:1000700023020008230200082302000823020008CC
:1000800023020008230200080000000023020008E9
:1000900023020008230200082302000823020008AC
:1000A000230200082302000823020008230200089C
:1000B00023020008000000002302000800000000E6
:1000C0000348854600F0C4F9004800478D01000848
:1000D0001804002008B50090002801DD401EFAE752
:1000E00008BDF1B5414C0026F643414F1BE0092005
:1000F000C006008AC00709D001250B2000F01CF8BB
:100100002821206800F08EF9FFF7E4FF30460099BF
:100110008840B8610098401C28210090206800F0B9
:1001200081F9FFF7D7FF00980C2801DA002DDED106
:100130000B2000F001F8F8BDF1B501252B4C2C4F38
:100140001BE00920C006008AC00709D00126002054
:10015000FFF7C7FF2821206800F064F9FFF7BAFF16
:10016000284600998840B8610098401E28210090D8
:10017000206800F057F9FFF7ADFF0098002801DD77
:10018000002EDED10020FFF7ACFFF8BD1948406912
:100190000121C904084317494861154800681649F8
:1001A00008431349086008468088144908401049EC
:1001B000888008468068124908430D4988600846CF
:1001C000C0680F49C94308400949C86009484069E7
:1001D000890108430749486107E001250B24002DE8
:1001E00002D02046FFF7A8FF00BFF6E7000000207E
:1001F00000080048001002405455150001F8FFFFA8
:10020000FCFF3F00704700BFFEE770477047704734
:100210000448804704480047FEE7FEE7FEE7FEE7A4
:10022000FEE7FEE7FB020008C10000080CB5002055
:100230000190009073480068012109040843714946
:10024000086000BF6F480068012149040840009021
:100250000198401C01900098002804D10521090252
:1002600001988842EED1674800680121490408409E
:10027000002802D00120009001E0002000900098AA
:10028000012839D11120604908605E4840685D4905
:100290004860084640684860084640683F210904B5
:1002A00088435849486008464068112109040843BA
:1002B000544948600846006801210906084351492D
:1002C000086000BF4F480068012149060840002827
:1002D000F8D04C484068800880004A494860084689
:1002E0004068022108434749486000BF45484068CC
:1002F0000C2108400828F9D10CBD10B54148006810
:10030000012108433F490860084640683F490840CA
:100310003C494860084600683D4908403949086042
:100320000846006801218904884336490860084668
:1003300040683F2109048843324948600846C06A42
:1003400000090001C8620846006BFF215431884350
:100350002C4908630846406B400840004863002071
:100360008860FFF763FF10BDF8B500250024002664
:100370000027244840680C2108400546002D04D081
:10038000042D06D0082D2AD107E022482249086012
:1003900029E020482049086025E01A4840680F21DC
:1003A00089040840044617484068012109040840B0
:1003B0000646A00C841C002E04D118486043164940
:1003C00008600BE00F48C06A0007000F471C394661
:1003D000104800F027F860430F49086003E00D481B
:1003E0000D49086000BF00BF06484068F021084082
:1003F00000090B490D5C08480068E84006490860A0
:10040000F8BD000000100240002002400CB8FFF8C8
:10041000FFFFF6FE00127A000000002000093D00F8
:100420000400002030B50B460146002020220124A4
:1004300009E00D46D5409D4205D31D469540491B18
:100440002546954040191546521E002DF1DC30BD61
:10045000064C0125064E05E0E36807CC2B430C3C17
:1004600098471034B442F7D3FFF72EFE94040008E7
:10047000B404000802E008C8121F08C1002AFAD11B
:1004800070477047002001E001C1121F002AFBD114
:1004900070470000B40400080000002014000000B1
:1004A00074040008C80400081400002004040000BC
:1004B00084040008006CDC02000000000000000062
:0804C00001020304060708090C
:04000005080000C12E
:00000001FF
