:020000040800F2
:1000000030040020C5130008490300084B03000812
:1000100000000000000000000000000000000000E0
:100020000000000000000000000000004D03000878
:1000300000000000000000004F030008510300080A
:10004000D7130008D7130008D7130008D7130008E8
:10005000D7130008D7130008D7130008D7130008D8
:10006000D7130008D7130008D7130008D7130008C8
:1000700053030008D7130008D7130008D71300084C
:10008000D7130008D713000800000000D71300089A
:10009000D7130008D7130008D7130008D713000898
:1000A000D7130008D7130008D7130008D713000888
:1000B000D713000800000000D7130008000000005C
:1000C0000348854601F0B6F90048004735010008AD
:1000D0003004002030B5012189B0480200F0EDFD68
:1000E0000121C80400F0E0FD0220069003216846CB
:1000F00001770024C47706A9304800F06EFB6846FB
:10010000009404710294049405942D4C6946204691
:1001100000F0CEF9204600F06EFA0121204600F0F2
:10012000E2F9284D2046294600F0A3FA0028F9D02C
:1001300009B030BD0EB5002000F01EF9012000F01E
:100140001BF90021084600F04EF900F05BF800F0C2
:10015000ABF81DA000F089F8FFF7BCFF184C012197
:100160000722C902204600F023FA214E28213068D8
:1001700001F036F900F0D9F8204600F058FA0421D1
:10018000204600F076FA0028F9D0204600F054FA14
:1001900005460821204600F06CFA0028F9D015A089
:1001A00000F063F8694628B200F08DF8684600F068
:1001B0005CF813A000F059F8D8E7000000080048E8
:1001C0000024014001000001576F726B73686F706B
:1001D00020353A204144432053696E676C652043C3
:1001E0006F6E76657273696F6E206D6F64650A005D
:1001F0001C0000204144432076616C75653A200064
:100200000D00000010B5012188B0480400F04CFD3D
:100210000121880300F051FD022168460177032087
:10022000400206900321684641770921CC0601224D
:10023000204600F03EFB01220A21204600F039FB57
:1002400006A9204600F0C9FA684600F04BFEE120FE
:100250004002394C00906946204600F0F0FD012133
:10026000204600F05EFE08B010BD70B50446324D69
:1002700016E00A2809D18021284600F0CCFF00288A
:10028000F9D00D21284600F0DDFE8021284600F03F
:10029000C2FF0028F9D021782846641C00F0D2FE65
:1002A00020780028E5D170BD0EB524A103C90090C7
:1002B000019124A0006802906846FFF7D6FF02A8CB
:1002C000FFF7D3FF0EBDFEB500240E4625460028DD
:1002D00004DA2D2101244042317000B27D22D20087
:1002E0003021904201DA3155641C642801DA31551D
:1002F000641C0A2801DA3155641C6F460A2101F09A
:1003000085F8303179556D1C00B22DB20028F5DC2E
:1003100005E06D1E2DB2785D3055641C24B2002DB1
:10032000F7DC002030553046FEBD08B500900028AF
:1003300001DD401EFAE708BD003801401B5B324A70
:10034000000000001B5B66007047FEE770477047C7
:10035000704710B5074C8021204600F09AF900281C
:1003600006D08021204600F09FF9012000F01EF801
:1003700010BD0000002401407CB5044685004348C0
:100380000121405900F090FC404960000A39085AA8
:10039000009001206946087100208871C87103200F
:1003A00048713B48405900F018FA7CBD374A41007B
:1003B0000A3A515A364A8000105881617047334AD0
:1003C00041000A3A515A324A80001058018570475C
:1003D0002F49820089588A8A2C4B40000A3B185AC0
:1003E00042408A827047F3B505468700274885B0AA
:1003F000001FC059012100F057FC0121084600F000
:100400005CFC002668460673C67320486C001438EE
:10041000005B02901E4802A9001FC05900F0DDF9E0
:100420000698012823D119480E38015D801E005D11
:1004300000F0C6FC15481238005B00906846067153
:10044000002D01D0082000E00C20694648710125EC
:100450006846857100F03AF90C480C38015D684631
:10046000017403214174857404A800F03DFA07B0BB
:10047000F0BD064A10B54100143A515A044A8000B2
:10048000121F105800F0F7F910BD00008C1400087E
:1004900004000020854910B5884208D14415012187
:1004A000204600F025FC0021204600F021FC10BD74
:1004B00030B5C3687E4A8C6813400A680D792243C0
:1004C000CC686D032C4322430C69496922430A43DB
:1004D0001A43C26030BD0021016001718160C160BA
:1004E0000161416170470029816801D0012200E06B
:1004F0000222114381607047002A026901D00A4339
:1005000000E08A43026170470122D2030029C168DA
:1005100001D0114300E09143C16070470122920372
:100520000029C16801D0114300E09143C1607047C8
:100530000122D2050029C16801D0114300E0914396
:10054000C16070470904114301627047C2681F23EC
:100550009B069A430A43C260704701229205002914
:10056000C16801D0114300E09143C160704701228E
:100570005049D2050028886801D0104300E090431C
:100580008860704701224B4992050028886801D095
:10059000104300E0904388607047012245491206ED
:1005A0000028886801D0104300E0904388607047BD
:1005B000836A0B4383624261704701225203002920
:1005C000C16801D0114300E09143C160704701222E
:1005D00012040029C16801D0114300E09143C160B9
:1005E0007047012212030029C16801D0114300E0C5
:1005F0009143C1607047826800210123DB071A43E1
:1006000082600F231B038268491CD20FD2079942D4
:1006100001D0002AF7D18168002901DB006C704706
:100620000020704781681022114381607047816803
:100630000422114381607047006C80B2704700292A
:10064000C16802D00122114301E049084900C1609C
:100650007047C26802239A43C260C2680A43C260FC
:100660007047002A426801D00A4300E08A43426092
:10067000704702460020CB0104D5926801231B0677
:100680009A4300E012680A4200D0012070470160DE
:10069000704702465368002012680B400A4202D09D
:1006A000002B00D0012070470160704700240140FA
:1006B00003D2FFFF00270140324831490160002189
:1006C00041608160C16030494161704710B58379F4
:1006D0002C490268002B26D00B6893430B604A68B4
:1006E00003689A434A6002795218136804682343E6
:1006F00013608A6803689A438A60CA6803689A43E9
:10070000CA604279102A05D051180A68006802436D
:100710000A6010BD8A6803681A438A60CA68006864
:100720000243CA6010BD007940180168914301601E
:1007300010BD0021016001710C224271817170476E
:1007400010490A6902430A6170470E4A014652691C
:1007500000200A4200D0012070470A4948617047D2
:10076000084A01461368002052690B400A4202D031
:10077000002B00D0012070470249486170470000FB
:100780000000940F00040140FFFF6B00092110B529
:10079000C906884202D101214C0404E04D49884237
:1007A00009D101210402204600F099FA00212046D7
:1007B00000F095FA10BD4849884202D10121040297
:1007C000F1E74649884202D101210C05EBE7444993
:1007D0008842EFD101218C05E5E7F0B50022012424
:1007E00023460D6893401D409D422AD10D79012D6D
:1007F00001D0022D12D1876855000326AE40B743C1
:1008000087604E79AE4085682E43866085889D431B
:10081000858085888B7993401D43858006685500C7
:100820000323AB409E4306600E790768AE403E430B
:100830000660C6689E43C660CB79AB40C5682B4353
:10084000C360521C102ACBD3F0BD264901600021A1
:100850000171022242718171C1717047012208B594
:1008600012040A430092C261C1610099C161C16969
:10087000C069009008BD0246128A00200A4200D0DA
:1008800001207047008A70470246928A00200A427F
:1008900000D001207047808A7047816170470185D0
:1008A0007047002A01D081617047018570478182BD
:1008B00070474B07DB0E9A40C90810B5890008182D
:1008C000016A0F249C40A1430162016A1143016245
:1008D00010BD00000004004800080048000C00485B
:1008E00000140048FFFF000030B583780121027832
:1008F000002B15D09408174BA400E4182368920726
:10090000D50EFF22AA40934342789207120EAA40C6
:100910001A4322600078C006C00E81400E4804E0F1
:10092000D006C00E81400C488030016030BD0B4ABB
:100930000029116901D0014300E081431161704732
:10094000042207490428086902D0904308617047CF
:100950001043FBE700E400E000E100E000ED00E010
:1009600000E000E0F748016801221143016041689E
:10097000F54A114041600168F44A11400160016884
:10098000012292049143016041683F221204914385
:100990004160C16A09090901C162016BFF22543239
:1009A00091430163416B4908490041630021816023
:1009B0007047E44900228A7088707047034600201F
:1009C000E0495A090CD0012A0CD0022A0CD0496BFC
:1009D000DA06D20E012393400B4200D0012070476B
:1009E0000968F5E7096AF3E7496AF1E718B50020F5
:1009F0000524240200901120FFF7E0FF0099491C14
:100A00000091A14201D00028F5D01120FFF7D6FFB8
:100A1000002800D0012018BDCA4A1168F823994364
:100A2000C000084310607047C6490028086802D01B
:100A30000122104301E04008400008607047C14AAD
:100A4000516BF8239943C000084350637047BD4978
:100A50000028486B02D00122104301E0400840000A
:100A600048637047B74904220028486B01D090437F
:100A700000E0104348637047B2490A6A52085200C6
:100A80000A620A6A04239A430A620A6A02430A62F1
:100A90007047AC490A6A18239A430A620A6A0243F9
:100AA0000A627047A7490028486A02D00122104311
:100AB00001E0400840004862704710B5A14A536801
:100AC0003D242404A3435360536808430343536005
:100AD00010BD01229B4912060028086801D010436E
:100AE00000E0904308607047964AD16A09090901FD
:100AF0000143D162704701229249D204002808685C
:100B000001D0104300E09043086070478D49C871E0
:100B100070478C4A516889088900014351607047C9
:100B2000884840680C2108407047864A5168F02385
:100B30009943014351607047824A516807231B0261
:100B400099430143516070477E494A6801239B03E2
:100B50009A434A604A6883B21A434A600A6B8B150B
:100B60009A430A630A6B000C02430A637047754993
:100B70000A6B40239A430A630A6B02430A63704775
:100B800070490A6B10239A430A630A6B02430A6393
:100B900070476C490A6B920892000A630A6B024321
:100BA0000A637047F8B5674D044668680C21684EC3
:100BB000084003D0042801D0082801D0266012E0A4
:100BC000696868680122890212040F0F1040BF1C77
:100BD00000281CD0E86A0107090F3046491C00F0C4
:100BE000FFFB7843206068685A4B0006000F1A5CD0
:100BF00020680146D14061606A685205520F9A5CD4
:100C0000D140A1602A6BD20505D4534A09E053486C
:100C100047432760E7E76A68520401D44A0800E0C6
:100C20008A08E2602A6B53064D4A03D44C4B1233B8
:100C3000236100E022612B6BDB0601D4666100E0DA
:100C400060612B6B9B070FD0296B8907890F0129E6
:100C50000CD0286B8007800F022809D0286BC04376
:100C6000800700D1A661F8BDA161F8BDA061F8BD03
:100C7000A261F8BD33490A6A02430A6270473149EA
:100C80000028374A086A01D0104300E09043086208
:100C9000704701222B4912040028086A01D0104332
:100CA00000E0904308627047264A0029516901D04C
:100CB000014300E0814351617047224A0029916954
:100CC00001D0014300E08143916170471D4A002932
:100CD000D16901D0014300E08143D1617047194AD5
:100CE0000029916A01D0014300E08143916270477D
:100CF000144A0029D16801D0014300E08143D1604A
:100D00007047104A0029116901D0014300E0814376
:100D1000116170470B4A0029517A01D0014300E06C
:100D20008143517270470748416A012212061143FC
:100D300041627047034A0146926800200A4200D08F
:100D400001207047001002400CB8FFF8FFFFF6FECC
:100D500000127A000C000020809FD50000093D00A1
:100D60000080000001498872EBE70000001002409B
:100D7000244801688907890F016000218160C160F2
:100D800001614161816982151143816170471D4A8A
:100D9000116889088900014311607047194A0029C8
:100DA000116801D0014300E0814311607047154A8A
:100DB0000029116801D0014300E0814311607047B0
:100DC0008A07130F10B50F229A408C080D49A40012
:100DD00061188C6894438C608A68984002438A60EA
:100DE00010BD08498A6902438A617047054900209D
:100DF0008969C90500D50120704702498A69024303
:100E00008A61704700000140F74910B5884209D156
:100E100001218C032046FFF76BFF00212046FFF7DE
:100E200067FF10BDF1498842FBD101214C042046E7
:100E3000FFF767FF00212046FFF763FF10BD70B585
:100E40000446006888B00D46400840002060616894
:100E5000032000038143A868084360602168E448D8
:100E6000EA680140686810432A690A431043206019
:100E7000A06803210902884369690143A1606846AB
:100E8000FFF790FED848844201D1069800E002980E
:100E900021680904296801D5490000E08900192268
:100EA000504300F09DFA0546642100F099FA0601CE
:100EB0003009642148432168281A090407D5C00075
:100EC0006421323000F08CFA4007400F06E0000148
:100ED0006421323000F084FA0007000F3043A08113
:100EE00008B070BD4B21C9010160002141608160E3
:100EF0000C22C16002614161704710B542680F2346
:100F00001B029A4318C923430C6849680C432343C6
:100F10001343436010BD0021016041608160C160E6
:100F200070470029016802D00122114301E04908FD
:100F3000490001607047002A026801D00A4300E0BE
:100F40008A43026070470122D2030029016801D060
:100F5000114300E09143016070470122D202002951
:100F6000816801D0114300E0914381607047012204
:100F7000D2040029416801D0114300E0914341604F
:100F80007047012292040029416801D0114300E01A
:100F9000914341607047002A426801D00A4300E053
:100FA0008A43426070470122D2030029416801D080
:100FB000114300E09143416070470122D2050029AE
:100FC000416801D0114300E091434160704742699C
:100FD000120E1206426142690A4342617047028A58
:100FE000120A12020282028A0A4302827047022215
:100FF0000029016801D0114300E09143016070476E
:10100000826803231B059A43826082680A438260D8
:101010007047012212050029416801D0114300E008
:10102000914341607047426803235B059A434260E5
:1010300042680A4342607047C1690122D20391436A
:10104000C1617047C905C90D01857047808CC00515
:10105000C00D704742681202120A426042680906D7
:101060000A4342607047012252030029016801D0FF
:10107000114300E091430160704702680123DB02E5
:101080009A43026002680A43026070474268102374
:101090009A43426042680A43426070474268202394
:1010A0009A43426042680A434260704701229203B9
:1010B0000029416801D0114300E09143416070472D
:1010C00008220029816801D0114300E0914381602A
:1010D0007047028AD2B20282028A09020A4302825D
:1010E000704720220029816801D0114300E091431C
:1010F0008160704710220029816801D0114300E00F
:10110000914381607047826807235B049A43826041
:10111000826849040A438260704742691202120AD7
:101120004261426909060A434261704782680423AA
:101130009A43826082680A438260704702220029D3
:10114000816801D0114300E0914381607047012222
:1011500092030029816801D0114300E0914381602E
:10116000704782680123DB039A43826082680A43E6
:101170008260704702681F235B059A430260026821
:1011800049050A430260704702681F231B049A4303
:101190000260026809040A4302607047002A8268FC
:1011A00001D00A4300E08A438260704782680123CD
:1011B0005B039A43826082680A438260704710B57D
:1011C0000B041C0E01238B40022C02D0032C02D0F6
:1011D00002E0001D00E008300168002A01D0194338
:1011E00000E09943016010BD003801400044004018
:1011F000F3E9FFFF002A028B01D00A4300E08A4393
:1012000002837047826801231B039A4382608268CD
:101210000A43826070470246D26900200A4200D029
:10122000012070470162704730B50A04130E012295
:10123000144600258C40012B0ED0022B0ED0836863
:10124000090C2340C0698A401040002B02D00028BE
:1012500000D00125284630BD0368F1E74368EFE779
:101260000A0C0121914001627047000010B54E4800
:10127000016801221143016041684C4A11404160FC
:1012800001684B4A114001600168012292049143B8
:10129000016041683F22120491434160C16A09091B
:1012A0000901C162016BFF22543291430163416B1A
:1012B0004908490041630021816000F02EF810BD0B
:1012C00070B5394D69680C2001403A483A4C03D05A
:1012D000042901D0082901D0206014E06A686968F7
:1012E000012392021B04160F1940B61C002907D0D7
:1012F000E96A0907090F491C00F072F87043EBE72F
:101300002E484643266068682B490006000F091DD9
:10131000085C2168C140216070BD1CB500212248D5
:1013200001910091026801231B041A4302605B00D3
:101330000522120204681C400094019C641C019464
:10134000009C002C02D1019C9442F3D102689203CC
:1013500028D5012100911A4A11211160416841608C
:101360004168416041683F221204914341604168F5
:101370001122120411434160016801221206114337
:10138000016001688901FCD54168890889004160D4
:10139000416802221143416041680907890F02290F
:1013A000FAD11CBD00911CBD001002400CB8FFF822
:1013B000FFFFF6FE00127A001C00002000093D002D
:1013C000002002400448804704480047FEE7FEE74B
:1013D000FEE7FEE7FEE7FEE76D120008C100000829
:1013E00030B50B46014600202022012409E00D46BD
:1013F000D5409D4205D31D469540491B2546954045
:1014000040191546521E002DF1DC30BD70B5002488
:101410002546002801DA01244042002901DA01258D
:101420004942FFF7DDFFAC4200D04042002C00D023
:10143000494270BD064C0125064E05E0E36807CC25
:101440002B430C3C98471034B442F7D3FEF73CFED4
:1014500094140008B414000802E008C8121F08C160
:10146000002AFAD170477047002001E001C1121F25
:10147000002AFBD1704700000100010000000000BD
:10148000050000020001000000000200000008004A
:1014900000000800B4140008000000203000000024
:1014A00058140008E4140008300000200004000074
:1014B00068140008000000480008004800080048C0
:1014C00000000000010203040102030406070809EA
:1014D000006CDC02000000000000000001020304B8
:0414E00006070809EA
:04000005080000C12E
:00000001FF
