:020000040800F2
:1000000030060020A50400086D0300086F030008F7
:1000100000000000000000000000000000000000E0
:100020000000000000000000000000007303000852
:1000300000000000000000007503000877030008BE
:10004000B7040008B7040008B7040008B7040008A4
:10005000B7040008B7040008B7040008B704000894
:10006000B7040008B7040008B7040008B704000884
:10007000B7040008B7040008B7040008B704000874
:10008000B7040008B704000800000000B704000827
:10009000B7040008B7040008B7040008B704000854
:1000A000B7040008B7040008B7040008D303000829
:1000B000B704000800000000B704000800000000BA
:1000C0000348854600F022FB00480047E300000893
:1000D0003006002008B50090002801DD401EFAE738
:1000E00008BD324840690121C90408432F494861CD
:1000F0002F4800680521090408432D490860084677
:10010000808803210902884329498880084680683D
:100110000F2109040843264988600846C0680F215A
:10012000090488432249C86000F06EF800F0C7F85F
:10013000204800F0B3F8204800F0B0F81F4800F065
:10014000ADF81F4800F0AAF81EA000F0A7F80A209A
:1001500000F0FEFA2449086026E00120400214491C
:10016000886122490968C8080A2100F0A5FA0546F5
:10017000FFF7B0FF012040060D4988611B4909685F
:10018000C8080A2100F098FA0546FFF7A3FF00F01F
:1001900066F9041E08D016A000F080F8204600F092
:1001A00072F817A000F07AF8D7E7000000100240BC
:1001B000000800486408000844090008BC0700085B
:1001C000D80800081B5B33356D486176652066757D
:1001D0006E2077697468207468697320746F6F6C1F
:1001E000211B5B306D0A0A00000000201400002073
:1001F0004461746120726561643A201B5B316D005B
:100200000A1B5B306D00000010B5504840690121A9
:10021000490408434D4948610920C006006805218A
:10022000C90408430921C90608600846406AFF213D
:10023000113108430921C9064862444880690121F7
:100240008903084341498861FF20A13040498881E2
:100250000D20086000204860886008460068202162
:1002600008433B4908601B2001218140394A116045
:1002700000BF002100F032F81B2001218140364AE6
:10028000116000BF10BD00BF3149C9698022114013
:100290000029F9D02E4920310881704700B5034666
:1002A00009E018780A2802D10D20FFF7ECFF187832
:1002B0005B1CFFF7E8FF18780028F2D100BD0EB5EF
:1002C00026A103C90291019026A00068009001A810
:1002D000FFF7E4FF6846FFF7E1FF0EBD10B5002809
:1002E00019DA214A03071B0F083B9B089B00D258D1
:1002F0008307DC0EFF23A3409A438B071B0E840762
:10030000E40EA3401A43184B0407240F083CA4082A
:10031000A4001A5118E00F4A03231B02D2188308C5
:100320009B00D2588307DC0EFF23A3409A438B0720
:100330001B0E8407E40EA3401A43064B0324240239
:100340001B198408A4001A5110BD000000100240BF
:100350000038014000E100E080E200E01B5B324A2F
:10036000000000001B5B66001CED00E0704700BF52
:10037000FEE7704770471E4801680068401C1C4A31
:100380001060002903D1012040021A4988611848F1
:1003900000680F2804D1012040021649203108814D
:1003A000134800681E2803D10120400211498861CA
:1003B0000F4800682D2804D1012040020D4920314A
:1003C00008810B480068C82802D10020084908604D
:1003D000704710B50848C06920210840002806D0A1
:1003E000054820308088C4B2204600F017F810BDC0
:1003F0001000002000080048003801402448007820
:100400007047002023490968234A1268914204D1A9
:100410001F490978012900D00120704710B5044612
:10042000FFF7ECFF002804D0FF2001301B49886152
:1004300014E01B4800681749096844540A2115480C
:100440000068401C00F04EF9124801600068124933
:100450000968884202D101200D49087010BD10B50D
:10046000FFF7CFFF002801D0002010BD0C48006826
:1004700009490968445C0A2107480068401C00F0EB
:1004800031F9054801600020014908702046ECE779
:100490000C00002004000020080000200008004894
:1004A000000000200448804704480047FEE7FEE7BC
:1004B000FEE7FEE7FEE7FEE78F050008C100000843
:1004C0000CB50020019000907348006801210904D8
:1004D00008437149086000BF6F4800680121490462
:1004E000084000900198401C01900098002804D119
:1004F0000521090201988842EED167480068012170
:1005000049040840002802D00120009001E00020AA
:1005100000900098012839D11120604908605E4898
:1005200040685D4948600846406848600846406841
:100530003F21090488435849486008464068112112
:100540000904084354494860084600680121090627
:1005500008435149086000BF4F480068012149061F
:1005600008400028F8D04C484068800880004A497C
:10057000486008464068022108434749486000BF78
:10058000454840680C2108400828F9D10CBD10B539
:1005900041480068012108433F4908600846406817
:1005A0003F4908403C494860084600683D490840CA
:1005B00039490860084600680121890488433649A2
:1005C0000860084640683F21090488433249486072
:1005D0000846C06A00090001C8620846006BFF2196
:1005E000543188432C4908630846406B400840005A
:1005F000486300208860FFF763FF10BDF8B5002551
:10060000002400260027244840680C2108400546A5
:10061000002D04D0042D06D0082D2AD107E0224851
:100620002249086029E020482049086025E01A484E
:1006300040680F218904084004461748406801219A
:10064000090408400646A00C841C002E04D118485A
:100650006043164908600BE00F48C06A0007000FAE
:10066000471C3946104800F027F860430F490860DE
:1006700003E00D480D49086000BF00BF0648406810
:10068000F021084000090B490D5C08480068E8406B
:1006900006490860F8BD000000100240002002403A
:1006A0000CB8FFF8FFFFF6FE00127A0014000020DD
:1006B00000093D001800002030B50B46014600201F
:1006C0002022012409E00D46D5409D4205D31D4658
:1006D0009540491B2546954040191546521E002D50
:1006E000F1DC30BD70B500242546002801DA012474
:1006F0004042002901DA01254942FFF7DDFFAC4203
:1007000000D04042002C00D0494270BD064C01256B
:10071000064E05E0E36807CC2B430C3C98471034A9
:10072000B442F7D3FFF7D0FCB8090008D809000895
:1007300002E008C8121F08C1002AFAD170477047AA
:10074000002001E001C1121F002AFBD17047000008
:10075000F0B50B30C108C900144F0026144A0FE051
:1007600003688B420BD38B4205D95C1A431845684A
:1007700030C3083B00E04368136002C004E0021D80
:1007800010680028ECD13046002803D138680028D2
:1007900001D00020F0BD064A06481060064A121A31
:1007A000D208D20044C001203860D7E72C000020D6
:1007B00028000020340000203002002054686973B3
:1007C000206D65616E73207468617420796F752087
:1007D00063616E2070757420696E206173206D6195
:1007E0006E79206361726163746572732061732036
:1007F000796F7520776F756C64206C696B65206903
:100800006E207468697320636F6E736F6C652C2043
:100810006173206C6F6E6720617320796F7520643F
:100820006F206E6F742066696C6C2074686520623E
:1008300075666665720A287768696368206973203F
:1008400073657420746F201B5B33366D3130301B41
:100850005B33326D2062792064656661756C742942
:100860000A0A00001B5B33326D57656C636F6D6560
:1008700020746F2061737369676E6D656E742032CA
:1008800021200A0A457665727974696D6520796F51
:100890007520656E746572206120636861726163A2
:1008A0007465722069742077696C6C2067657420A8
:1008B000736176656420696E7369646520271B5BCC
:1008C00033366D72785F6275666665721B5B3332B4
:1008D0006D272E0A0A000000496620796F7520777F
:1008E0006F756C64206C696B6520746F2063686140
:1008F0006E67652074686520627566666572207330
:10090000697A652C206665656C2066726565207461
:100910006F20646F207468617420696E7369646508
:100920002074686520271B5B33366D696E636C75B8
:1009300064652E631B5B33326D272066696C652E00
:100940000A0A0000546865206D61696E206C6F6F43
:10095000702077696C6C20646F2069747320626505
:10096000737420746F207265616420616C6C2074F4
:10097000686520646174612C206F6E636520746803
:1009800065206461746120697320726561642C2044
:10099000746865206C6F636174696F6E206F662088
:1009A000746865207461696C2077696C6C206D6F68
:1009B00076652E0A00000000D8090008000000201B
:1009C0003000000030070008080A0008300000204E
:1009D00000060000400700080000000000000000C2
:1009E000000000000000000000000000006CDC02BD
:1009F00000000000000000000102030406070809CF
:080A00000000000000000000EE
:04000005080000C12E
:00000001FF
